{"abi":[{"type":"constructor","inputs":[{"name":"initialOwner","type":"address","internalType":"address"}],"stateMutability":"nonpayable"},{"type":"function","name":"allowance","inputs":[{"name":"owner","type":"address","internalType":"address"},{"name":"spender","type":"address","internalType":"address"}],"outputs":[{"name":"","type":"uint256","internalType":"uint256"}],"stateMutability":"view"},{"type":"function","name":"approve","inputs":[{"name":"spender","type":"address","internalType":"address"},{"name":"value","type":"uint256","internalType":"uint256"}],"outputs":[{"name":"","type":"bool","internalType":"bool"}],"stateMutability":"nonpayable"},{"type":"function","name":"balanceOf","inputs":[{"name":"account","type":"address","internalType":"address"}],"outputs":[{"name":"","type":"uint256","internalType":"uint256"}],"stateMutability":"view"},{"type":"function","name":"burn","inputs":[{"name":"value","type":"uint256","internalType":"uint256"}],"outputs":[],"stateMutability":"nonpayable"},{"type":"function","name":"burnFrom","inputs":[{"name":"account","type":"address","internalType":"address"},{"name":"value","type":"uint256","internalType":"uint256"}],"outputs":[],"stateMutability":"nonpayable"},{"type":"function","name":"decimals","inputs":[],"outputs":[{"name":"","type":"uint8","internalType":"uint8"}],"stateMutability":"view"},{"type":"function","name":"mint","inputs":[{"name":"to","type":"address","internalType":"address"},{"name":"amount","type":"uint256","internalType":"uint256"}],"outputs":[],"stateMutability":"nonpayable"},{"type":"function","name":"name","inputs":[],"outputs":[{"name":"","type":"string","internalType":"string"}],"stateMutability":"view"},{"type":"function","name":"owner","inputs":[],"outputs":[{"name":"","type":"address","internalType":"address"}],"stateMutability":"view"},{"type":"function","name":"pause","inputs":[],"outputs":[],"stateMutability":"nonpayable"},{"type":"function","name":"paused","inputs":[],"outputs":[{"name":"","type":"bool","internalType":"bool"}],"stateMutability":"view"},{"type":"function","name":"renounceOwnership","inputs":[],"outputs":[],"stateMutability":"nonpayable"},{"type":"function","name":"symbol","inputs":[],"outputs":[{"name":"","type":"string","internalType":"string"}],"stateMutability":"view"},{"type":"function","name":"totalSupply","inputs":[],"outputs":[{"name":"","type":"uint256","internalType":"uint256"}],"stateMutability":"view"},{"type":"function","name":"transfer","inputs":[{"name":"to","type":"address","internalType":"address"},{"name":"value","type":"uint256","internalType":"uint256"}],"outputs":[{"name":"","type":"bool","internalType":"bool"}],"stateMutability":"nonpayable"},{"type":"function","name":"transferFrom","inputs":[{"name":"from","type":"address","internalType":"address"},{"name":"to","type":"address","internalType":"address"},{"name":"value","type":"uint256","internalType":"uint256"}],"outputs":[{"name":"","type":"bool","internalType":"bool"}],"stateMutability":"nonpayable"},{"type":"function","name":"transferOwnership","inputs":[{"name":"newOwner","type":"address","internalType":"address"}],"outputs":[],"stateMutability":"nonpayable"},{"type":"function","name":"unpause","inputs":[],"outputs":[],"stateMutability":"nonpayable"},{"type":"event","name":"Approval","inputs":[{"name":"owner","type":"address","indexed":true,"internalType":"address"},{"name":"spender","type":"address","indexed":true,"internalType":"address"},{"name":"value","type":"uint256","indexed":false,"internalType":"uint256"}],"anonymous":false},{"type":"event","name":"OwnershipTransferred","inputs":[{"name":"previousOwner","type":"address","indexed":true,"internalType":"address"},{"name":"newOwner","type":"address","indexed":true,"internalType":"address"}],"anonymous":false},{"type":"event","name":"Paused","inputs":[{"name":"account","type":"address","indexed":false,"internalType":"address"}],"anonymous":false},{"type":"event","name":"Transfer","inputs":[{"name":"from","type":"address","indexed":true,"internalType":"address"},{"name":"to","type":"address","indexed":true,"internalType":"address"},{"name":"value","type":"uint256","indexed":false,"internalType":"uint256"}],"anonymous":false},{"type":"event","name":"Unpaused","inputs":[{"name":"account","type":"address","indexed":false,"internalType":"address"}],"anonymous":false},{"type":"error","name":"ERC20InsufficientAllowance","inputs":[{"name":"spender","type":"address","internalType":"address"},{"name":"allowance","type":"uint256","internalType":"uint256"},{"name":"needed","type":"uint256","internalType":"uint256"}]},{"type":"error","name":"ERC20InsufficientBalance","inputs":[{"name":"sender","type":"address","internalType":"address"},{"name":"balance","type":"uint256","internalType":"uint256"},{"name":"needed","type":"uint256","internalType":"uint256"}]},{"type":"error","name":"ERC20InvalidApprover","inputs":[{"name":"approver","type":"address","internalType":"address"}]},{"type":"error","name":"ERC20InvalidReceiver","inputs":[{"name":"receiver","type":"address","internalType":"address"}]},{"type":"error","name":"ERC20InvalidSender","inputs":[{"name":"sender","type":"address","internalType":"address"}]},{"type":"error","name":"ERC20InvalidSpender","inputs":[{"name":"spender","type":"address","internalType":"address"}]},{"type":"error","name":"EnforcedPause","inputs":[]},{"type":"error","name":"ExpectedPause","inputs":[]},{"type":"error","name":"OwnableInvalidOwner","inputs":[{"name":"owner","type":"address","internalType":"address"}]},{"type":"error","name":"OwnableUnauthorizedAccount","inputs":[{"name":"account","type":"address","internalType":"address"}]}],"bytecode":{"object":"0x608060405234801561000f575f5ffd5b50604051611a28380380611a2883398181016040528101906100319190610269565b806040518060400160405280600781526020017f426c656d617374000000000000000000000000000000000000000000000000008152506040518060400160405280600381526020017f424c45000000000000000000000000000000000000000000000000000000000081525081600390816100ad91906104d1565b5080600490816100bd91906104d1565b5050505f73ffffffffffffffffffffffffffffffffffffffff168173ffffffffffffffffffffffffffffffffffffffff1603610130575f6040517f1e4fbdf700000000000000000000000000000000000000000000000000000000815260040161012791906105af565b60405180910390fd5b61013f8161014660201b60201c565b50506105c8565b5f600560019054906101000a900473ffffffffffffffffffffffffffffffffffffffff16905081600560016101000a81548173ffffffffffffffffffffffffffffffffffffffff021916908373ffffffffffffffffffffffffffffffffffffffff1602179055508173ffffffffffffffffffffffffffffffffffffffff168173ffffffffffffffffffffffffffffffffffffffff167f8be0079c531659141344cd1fd0a4f28419497f9722a3daafe3b4186f6b6457e060405160405180910390a35050565b5f5ffd5b5f73ffffffffffffffffffffffffffffffffffffffff82169050919050565b5f6102388261020f565b9050919050565b6102488161022e565b8114610252575f5ffd5b50565b5f815190506102638161023f565b92915050565b5f6020828403121561027e5761027d61020b565b5b5f61028b84828501610255565b91505092915050565b5f81519050919050565b7f4e487b71000000000000000000000000000000000000000000000000000000005f52604160045260245ffd5b7f4e487b71000000000000000000000000000000000000000000000000000000005f52602260045260245ffd5b5f600282049050600182168061030f57607f821691505b602082108103610322576103216102cb565b5b50919050565b5f819050815f5260205f209050919050565b5f6020601f8301049050919050565b5f82821b905092915050565b5f600883026103847fffffffffffffffffffffffffffffffffffffffffffffffffffffffffffffffff82610349565b61038e8683610349565b95508019841693508086168417925050509392505050565b5f819050919050565b5f819050919050565b5f6103d26103cd6103c8846103a6565b6103af565b6103a6565b9050919050565b5f819050919050565b6103eb836103b8565b6103ff6103f7826103d9565b848454610355565b825550505050565b5f5f905090565b610416610407565b6104218184846103e2565b505050565b5b81811015610444576104395f8261040e565b600181019050610427565b5050565b601f8211156104895761045a81610328565b6104638461033a565b81016020851015610472578190505b61048661047e8561033a565b830182610426565b50505b505050565b5f82821c905092915050565b5f6104a95f198460080261048e565b1980831691505092915050565b5f6104c1838361049a565b9150826002028217905092915050565b6104da82610294565b67ffffffffffffffff8111156104f3576104f261029e565b5b6104fd82546102f8565b610508828285610448565b5f60209050601f831160018114610539575f8415610527578287015190505b61053185826104b6565b865550610598565b601f19841661054786610328565b5f5b8281101561056e57848901518255600182019150602085019450602081019050610549565b8683101561058b5784890151610587601f89168261049a565b8355505b6001600288020188555050505b505050505050565b6105a98161022e565b82525050565b5f6020820190506105c25f8301846105a0565b92915050565b611453806105d55f395ff3fe608060405234801561000f575f5ffd5b5060043610610114575f3560e01c806370a08231116100a05780638da5cb5b1161006f5780638da5cb5b1461029257806395d89b41146102b0578063a9059cbb146102ce578063dd62ed3e146102fe578063f2fde38b1461032e57610114565b806370a0823114610232578063715018a61461026257806379cc67901461026c5780638456cb591461028857610114565b8063313ce567116100e7578063313ce567146101b45780633f4ba83a146101d257806340c10f19146101dc57806342966c68146101f85780635c975abb1461021457610114565b806306fdde0314610118578063095ea7b31461013657806318160ddd1461016657806323b872dd14610184575b5f5ffd5b61012061034a565b60405161012d91906110a1565b60405180910390f35b610150600480360381019061014b9190611152565b6103da565b60405161015d91906111aa565b60405180910390f35b61016e6103fc565b60405161017b91906111d2565b60405180910390f35b61019e600480360381019061019991906111eb565b610405565b6040516101ab91906111aa565b60405180910390f35b6101bc610433565b6040516101c99190611256565b60405180910390f35b6101da61043b565b005b6101f660048036038101906101f19190611152565b61044d565b005b610212600480360381019061020d919061126f565b610463565b005b61021c610477565b60405161022991906111aa565b60405180910390f35b61024c6004803603810190610247919061129a565b61048c565b60405161025991906111d2565b60405180910390f35b61026a6104d1565b005b61028660048036038101906102819190611152565b6104e4565b005b610290610504565b005b61029a610516565b6040516102a791906112d4565b60405180910390f35b6102b861053f565b6040516102c591906110a1565b60405180910390f35b6102e860048036038101906102e39190611152565b6105cf565b6040516102f591906111aa565b60405180910390f35b610318600480360381019061031391906112ed565b6105f1565b60405161032591906111d2565b60405180910390f35b6103486004803603810190610343919061129a565b610673565b005b60606003805461035990611358565b80601f016020809104026020016040519081016040528092919081815260200182805461038590611358565b80156103d05780601f106103a7576101008083540402835291602001916103d0565b820191905f5260205f20905b8154815290600101906020018083116103b357829003601f168201915b5050505050905090565b5f5f6103e46106f7565b90506103f18185856106fe565b600191505092915050565b5f600254905090565b5f5f61040f6106f7565b905061041c858285610710565b6104278585856107a3565b60019150509392505050565b5f6012905090565b610443610893565b61044b61091a565b565b610455610893565b61045f828261097b565b5050565b61047461046e6106f7565b826109fa565b50565b5f60055f9054906101000a900460ff16905090565b5f5f5f8373ffffffffffffffffffffffffffffffffffffffff1673ffffffffffffffffffffffffffffffffffffffff1681526020019081526020015f20549050919050565b6104d9610893565b6104e25f610a79565b565b6104f6826104f06106f7565b83610710565b61050082826109fa565b5050565b61050c610893565b610514610b3e565b565b5f600560019054906101000a900473ffffffffffffffffffffffffffffffffffffffff16905090565b60606004805461054e90611358565b80601f016020809104026020016040519081016040528092919081815260200182805461057a90611358565b80156105c55780601f1061059c576101008083540402835291602001916105c5565b820191905f5260205f20905b8154815290600101906020018083116105a857829003601f168201915b5050505050905090565b5f5f6105d96106f7565b90506105e68185856107a3565b600191505092915050565b5f60015f8473ffffffffffffffffffffffffffffffffffffffff1673ffffffffffffffffffffffffffffffffffffffff1681526020019081526020015f205f8373ffffffffffffffffffffffffffffffffffffffff1673ffffffffffffffffffffffffffffffffffffffff1681526020019081526020015f2054905092915050565b61067b610893565b5f73ffffffffffffffffffffffffffffffffffffffff168173ffffffffffffffffffffffffffffffffffffffff16036106eb575f6040517f1e4fbdf70000000000000000000000000000000000000000000000000000000081526004016106e291906112d4565b60405180910390fd5b6106f481610a79565b50565b5f33905090565b61070b8383836001610ba0565b505050565b5f61071b84846105f1565b90507fffffffffffffffffffffffffffffffffffffffffffffffffffffffffffffffff81101561079d578181101561078e578281836040517ffb8f41b200000000000000000000000000000000000000000000000000000000815260040161078593929190611388565b60405180910390fd5b61079c84848484035f610ba0565b5b50505050565b5f73ffffffffffffffffffffffffffffffffffffffff168373ffffffffffffffffffffffffffffffffffffffff1603610813575f6040517f96c6fd1e00000000000000000000000000000000000000000000000000000000815260040161080a91906112d4565b60405180910390fd5b5f73ffffffffffffffffffffffffffffffffffffffff168273ffffffffffffffffffffffffffffffffffffffff1603610883575f6040517fec442f0500000000000000000000000000000000000000000000000000000000815260040161087a91906112d4565b60405180910390fd5b61088e838383610d6f565b505050565b61089b6106f7565b73ffffffffffffffffffffffffffffffffffffffff166108b9610516565b73ffffffffffffffffffffffffffffffffffffffff1614610918576108dc6106f7565b6040517f118cdaa700000000000000000000000000000000000000000000000000000000815260040161090f91906112d4565b60405180910390fd5b565b610922610d7f565b5f60055f6101000a81548160ff0219169083151502179055507f5db9ee0a495bf2e6ff9c91a7834c1ba4fdd244a5e8aa4e537bd38aeae4b073aa6109646106f7565b60405161097191906112d4565b60405180910390a1565b5f73ffffffffffffffffffffffffffffffffffffffff168273ffffffffffffffffffffffffffffffffffffffff16036109eb575f6040517fec442f050000000000000000000000000000000000000000000000000000000081526004016109e291906112d4565b60405180910390fd5b6109f65f8383610d6f565b5050565b5f73ffffffffffffffffffffffffffffffffffffffff168273ffffffffffffffffffffffffffffffffffffffff1603610a6a575f6040517f96c6fd1e000000000000000000000000000000000000000000000000000000008152600401610a6191906112d4565b60405180910390fd5b610a75825f83610d6f565b5050565b5f600560019054906101000a900473ffffffffffffffffffffffffffffffffffffffff16905081600560016101000a81548173ffffffffffffffffffffffffffffffffffffffff021916908373ffffffffffffffffffffffffffffffffffffffff1602179055508173ffffffffffffffffffffffffffffffffffffffff168173ffffffffffffffffffffffffffffffffffffffff167f8be0079c531659141344cd1fd0a4f28419497f9722a3daafe3b4186f6b6457e060405160405180910390a35050565b610b46610dbf565b600160055f6101000a81548160ff0219169083151502179055507f62e78cea01bee320cd4e420270b5ea74000d11b0c9f74754ebdbfc544b05a258610b896106f7565b604051610b9691906112d4565b60405180910390a1565b5f73ffffffffffffffffffffffffffffffffffffffff168473ffffffffffffffffffffffffffffffffffffffff1603610c10575f6040517fe602df05000000000000000000000000000000000000000000000000000000008152600401610c0791906112d4565b60405180910390fd5b5f73ffffffffffffffffffffffffffffffffffffffff168373ffffffffffffffffffffffffffffffffffffffff1603610c80575f6040517f94280d62000000000000000000000000000000000000000000000000000000008152600401610c7791906112d4565b60405180910390fd5b8160015f8673ffffffffffffffffffffffffffffffffffffffff1673ffffffffffffffffffffffffffffffffffffffff1681526020019081526020015f205f8573ffffffffffffffffffffffffffffffffffffffff1673ffffffffffffffffffffffffffffffffffffffff1681526020019081526020015f20819055508015610d69578273ffffffffffffffffffffffffffffffffffffffff168473ffffffffffffffffffffffffffffffffffffffff167f8c5be1e5ebec7d5bd14f71427d1e84f3dd0314c0f7b2291e5b200ac8c7c3b92584604051610d6091906111d2565b60405180910390a35b50505050565b610d7a838383610e00565b505050565b610d87610477565b610dbd576040517f8dfc202b00000000000000000000000000000000000000000000000000000000815260040160405180910390fd5b565b610dc7610477565b15610dfe576040517fd93c066500000000000000000000000000000000000000000000000000000000815260040160405180910390fd5b565b610e08610dbf565b610e13838383610e18565b505050565b5f73ffffffffffffffffffffffffffffffffffffffff168373ffffffffffffffffffffffffffffffffffffffff1603610e68578060025f828254610e5c91906113ea565b92505081905550610f36565b5f5f5f8573ffffffffffffffffffffffffffffffffffffffff1673ffffffffffffffffffffffffffffffffffffffff1681526020019081526020015f2054905081811015610ef1578381836040517fe450d38c000000000000000000000000000000000000000000000000000000008152600401610ee893929190611388565b60405180910390fd5b8181035f5f8673ffffffffffffffffffffffffffffffffffffffff1673ffffffffffffffffffffffffffffffffffffffff1681526020019081526020015f2081905550505b5f73ffffffffffffffffffffffffffffffffffffffff168273ffffffffffffffffffffffffffffffffffffffff1603610f7d578060025f8282540392505081905550610fc7565b805f5f8473ffffffffffffffffffffffffffffffffffffffff1673ffffffffffffffffffffffffffffffffffffffff1681526020019081526020015f205f82825401925050819055505b8173ffffffffffffffffffffffffffffffffffffffff168373ffffffffffffffffffffffffffffffffffffffff167fddf252ad1be2c89b69c2b068fc378daa952ba7f163c4a11628f55a4df523b3ef8360405161102491906111d2565b60405180910390a3505050565b5f81519050919050565b5f82825260208201905092915050565b8281835e5f83830152505050565b5f601f19601f8301169050919050565b5f61107382611031565b61107d818561103b565b935061108d81856020860161104b565b61109681611059565b840191505092915050565b5f6020820190508181035f8301526110b98184611069565b905092915050565b5f5ffd5b5f73ffffffffffffffffffffffffffffffffffffffff82169050919050565b5f6110ee826110c5565b9050919050565b6110fe816110e4565b8114611108575f5ffd5b50565b5f81359050611119816110f5565b92915050565b5f819050919050565b6111318161111f565b811461113b575f5ffd5b50565b5f8135905061114c81611128565b92915050565b5f5f60408385031215611168576111676110c1565b5b5f6111758582860161110b565b92505060206111868582860161113e565b9150509250929050565b5f8115159050919050565b6111a481611190565b82525050565b5f6020820190506111bd5f83018461119b565b92915050565b6111cc8161111f565b82525050565b5f6020820190506111e55f8301846111c3565b92915050565b5f5f5f60608486031215611202576112016110c1565b5b5f61120f8682870161110b565b93505060206112208682870161110b565b92505060406112318682870161113e565b9150509250925092565b5f60ff82169050919050565b6112508161123b565b82525050565b5f6020820190506112695f830184611247565b92915050565b5f60208284031215611284576112836110c1565b5b5f6112918482850161113e565b91505092915050565b5f602082840312156112af576112ae6110c1565b5b5f6112bc8482850161110b565b91505092915050565b6112ce816110e4565b82525050565b5f6020820190506112e75f8301846112c5565b92915050565b5f5f60408385031215611303576113026110c1565b5b5f6113108582860161110b565b92505060206113218582860161110b565b9150509250929050565b7f4e487b71000000000000000000000000000000000000000000000000000000005f52602260045260245ffd5b5f600282049050600182168061136f57607f821691505b6020821081036113825761138161132b565b5b50919050565b5f60608201905061139b5f8301866112c5565b6113a860208301856111c3565b6113b560408301846111c3565b949350505050565b7f4e487b71000000000000000000000000000000000000000000000000000000005f52601160045260245ffd5b5f6113f48261111f565b91506113ff8361111f565b9250828201905080821115611417576114166113bd565b5b9291505056fea2646970667358221220c45a0eecde2664b2f27b28200dc7486d684755c38b55bb13d039d398356f10b464736f6c634300081e0033","linkReferences":{}},"methodIdentifiers":{"allowance(address,address)":"dd62ed3e","approve(address,uint256)":"095ea7b3","balanceOf(address)":"70a08231","burn(uint256)":"42966c68","burnFrom(address,uint256)":"79cc6790","decimals()":"313ce567","mint(address,uint256)":"40c10f19","name()":"06fdde03","owner()":"8da5cb5b","pause()":"8456cb59","paused()":"5c975abb","renounceOwnership()":"715018a6","symbol()":"95d89b41","totalSupply()":"18160ddd","transfer(address,uint256)":"a9059cbb","transferFrom(address,address,uint256)":"23b872dd","transferOwnership(address)":"f2fde38b","unpause()":"3f4ba83a"},"id":28}