{"abi":[{"type":"constructor","inputs":[{"name":"initialOwner","type":"address","internalType":"address"}],"stateMutability":"nonpayable"},{"type":"function","name":"DEFAULT_ADMIN_ROLE","inputs":[],"outputs":[{"name":"","type":"bytes32","internalType":"bytes32"}],"stateMutability":"view"},{"type":"function","name":"DOMAIN_SEPARATOR","inputs":[],"outputs":[{"name":"","type":"bytes32","internalType":"bytes32"}],"stateMutability":"view"},{"type":"function","name":"MAX_MINT_PER_PERIOD","inputs":[],"outputs":[{"name":"","type":"uint256","internalType":"uint256"}],"stateMutability":"view"},{"type":"function","name":"MAX_SUPPLY","inputs":[],"outputs":[{"name":"","type":"uint256","internalType":"uint256"}],"stateMutability":"view"},{"type":"function","name":"MINTER_ROLE","inputs":[],"outputs":[{"name":"","type":"bytes32","internalType":"bytes32"}],"stateMutability":"view"},{"type":"function","name":"MINT_COOLDOWN","inputs":[],"outputs":[{"name":"","type":"uint256","internalType":"uint256"}],"stateMutability":"view"},{"type":"function","name":"PAUSER_ROLE","inputs":[],"outputs":[{"name":"","type":"bytes32","internalType":"bytes32"}],"stateMutability":"view"},{"type":"function","name":"allowance","inputs":[{"name":"owner","type":"address","internalType":"address"},{"name":"spender","type":"address","internalType":"address"}],"outputs":[{"name":"","type":"uint256","internalType":"uint256"}],"stateMutability":"view"},{"type":"function","name":"approve","inputs":[{"name":"spender","type":"address","internalType":"address"},{"name":"value","type":"uint256","internalType":"uint256"}],"outputs":[{"name":"","type":"bool","internalType":"bool"}],"stateMutability":"nonpayable"},{"type":"function","name":"availableMintAmount","inputs":[],"outputs":[{"name":"","type":"uint256","internalType":"uint256"}],"stateMutability":"view"},{"type":"function","name":"balanceOf","inputs":[{"name":"account","type":"address","internalType":"address"}],"outputs":[{"name":"","type":"uint256","internalType":"uint256"}],"stateMutability":"view"},{"type":"function","name":"burn","inputs":[{"name":"value","type":"uint256","internalType":"uint256"}],"outputs":[],"stateMutability":"nonpayable"},{"type":"function","name":"burnFrom","inputs":[{"name":"account","type":"address","internalType":"address"},{"name":"value","type":"uint256","internalType":"uint256"}],"outputs":[],"stateMutability":"nonpayable"},{"type":"function","name":"decimals","inputs":[],"outputs":[{"name":"","type":"uint8","internalType":"uint8"}],"stateMutability":"view"},{"type":"function","name":"eip712Domain","inputs":[],"outputs":[{"name":"fields","type":"bytes1","internalType":"bytes1"},{"name":"name","type":"string","internalType":"string"},{"name":"version","type":"string","internalType":"string"},{"name":"chainId","type":"uint256","internalType":"uint256"},{"name":"verifyingContract","type":"address","internalType":"address"},{"name":"salt","type":"bytes32","internalType":"bytes32"},{"name":"extensions","type":"uint256[]","internalType":"uint256[]"}],"stateMutability":"view"},{"type":"function","name":"getRoleAdmin","inputs":[{"name":"role","type":"bytes32","internalType":"bytes32"}],"outputs":[{"name":"","type":"bytes32","internalType":"bytes32"}],"stateMutability":"view"},{"type":"function","name":"grantRole","inputs":[{"name":"role","type":"bytes32","internalType":"bytes32"},{"name":"account","type":"address","internalType":"address"}],"outputs":[],"stateMutability":"nonpayable"},{"type":"function","name":"hasRole","inputs":[{"name":"role","type":"bytes32","internalType":"bytes32"},{"name":"account","type":"address","internalType":"address"}],"outputs":[{"name":"","type":"bool","internalType":"bool"}],"stateMutability":"view"},{"type":"function","name":"lastMintTimestamp","inputs":[],"outputs":[{"name":"","type":"uint256","internalType":"uint256"}],"stateMutability":"view"},{"type":"function","name":"mint","inputs":[{"name":"to","type":"address","internalType":"address"},{"name":"amount","type":"uint256","internalType":"uint256"}],"outputs":[],"stateMutability":"nonpayable"},{"type":"function","name":"mintedInCurrentPeriod","inputs":[],"outputs":[{"name":"","type":"uint256","internalType":"uint256"}],"stateMutability":"view"},{"type":"function","name":"name","inputs":[],"outputs":[{"name":"","type":"string","internalType":"string"}],"stateMutability":"view"},{"type":"function","name":"nonces","inputs":[{"name":"owner","type":"address","internalType":"address"}],"outputs":[{"name":"","type":"uint256","internalType":"uint256"}],"stateMutability":"view"},{"type":"function","name":"pause","inputs":[],"outputs":[],"stateMutability":"nonpayable"},{"type":"function","name":"paused","inputs":[],"outputs":[{"name":"","type":"bool","internalType":"bool"}],"stateMutability":"view"},{"type":"function","name":"permit","inputs":[{"name":"owner","type":"address","internalType":"address"},{"name":"spender","type":"address","internalType":"address"},{"name":"value","type":"uint256","internalType":"uint256"},{"name":"deadline","type":"uint256","internalType":"uint256"},{"name":"v","type":"uint8","internalType":"uint8"},{"name":"r","type":"bytes32","internalType":"bytes32"},{"name":"s","type":"bytes32","internalType":"bytes32"}],"outputs":[],"stateMutability":"nonpayable"},{"type":"function","name":"renounceRole","inputs":[{"name":"role","type":"bytes32","internalType":"bytes32"},{"name":"callerConfirmation","type":"address","internalType":"address"}],"outputs":[],"stateMutability":"nonpayable"},{"type":"function","name":"revokeRole","inputs":[{"name":"role","type":"bytes32","internalType":"bytes32"},{"name":"account","type":"address","internalType":"address"}],"outputs":[],"stateMutability":"nonpayable"},{"type":"function","name":"supportsInterface","inputs":[{"name":"interfaceId","type":"bytes4","internalType":"bytes4"}],"outputs":[{"name":"","type":"bool","internalType":"bool"}],"stateMutability":"view"},{"type":"function","name":"symbol","inputs":[],"outputs":[{"name":"","type":"string","internalType":"string"}],"stateMutability":"view"},{"type":"function","name":"timeUntilNextPeriod","inputs":[],"outputs":[{"name":"","type":"uint256","internalType":"uint256"}],"stateMutability":"view"},{"type":"function","name":"totalSupply","inputs":[],"outputs":[{"name":"","type":"uint256","internalType":"uint256"}],"stateMutability":"view"},{"type":"function","name":"transfer","inputs":[{"name":"to","type":"address","internalType":"address"},{"name":"value","type":"uint256","internalType":"uint256"}],"outputs":[{"name":"","type":"bool","internalType":"bool"}],"stateMutability":"nonpayable"},{"type":"function","name":"transferFrom","inputs":[{"name":"from","type":"address","internalType":"address"},{"name":"to","type":"address","internalType":"address"},{"name":"value","type":"uint256","internalType":"uint256"}],"outputs":[{"name":"","type":"bool","internalType":"bool"}],"stateMutability":"nonpayable"},{"type":"function","name":"unpause","inputs":[],"outputs":[],"stateMutability":"nonpayable"},{"type":"event","name":"Approval","inputs":[{"name":"owner","type":"address","indexed":true,"internalType":"address"},{"name":"spender","type":"address","indexed":true,"internalType":"address"},{"name":"value","type":"uint256","indexed":false,"internalType":"uint256"}],"anonymous":false},{"type":"event","name":"ContractPaused","inputs":[{"name":"pauser","type":"address","indexed":true,"internalType":"address"},{"name":"timestamp","type":"uint256","indexed":false,"internalType":"uint256"}],"anonymous":false},{"type":"event","name":"ContractUnpaused","inputs":[{"name":"unpauser","type":"address","indexed":true,"internalType":"address"},{"name":"timestamp","type":"uint256","indexed":false,"internalType":"uint256"}],"anonymous":false},{"type":"event","name":"EIP712DomainChanged","inputs":[],"anonymous":false},{"type":"event","name":"Minted","inputs":[{"name":"to","type":"address","indexed":true,"internalType":"address"},{"name":"amount","type":"uint256","indexed":false,"internalType":"uint256"},{"name":"minter","type":"address","indexed":true,"internalType":"address"}],"anonymous":false},{"type":"event","name":"Paused","inputs":[{"name":"account","type":"address","indexed":false,"internalType":"address"}],"anonymous":false},{"type":"event","name":"RoleAdminChanged","inputs":[{"name":"role","type":"bytes32","indexed":true,"internalType":"bytes32"},{"name":"previousAdminRole","type":"bytes32","indexed":true,"internalType":"bytes32"},{"name":"newAdminRole","type":"bytes32","indexed":true,"internalType":"bytes32"}],"anonymous":false},{"type":"event","name":"RoleGranted","inputs":[{"name":"role","type":"bytes32","indexed":true,"internalType":"bytes32"},{"name":"account","type":"address","indexed":true,"internalType":"address"},{"name":"sender","type":"address","indexed":true,"internalType":"address"}],"anonymous":false},{"type":"event","name":"RoleRevoked","inputs":[{"name":"role","type":"bytes32","indexed":true,"internalType":"bytes32"},{"name":"account","type":"address","indexed":true,"internalType":"address"},{"name":"sender","type":"address","indexed":true,"internalType":"address"}],"anonymous":false},{"type":"event","name":"Transfer","inputs":[{"name":"from","type":"address","indexed":true,"internalType":"address"},{"name":"to","type":"address","indexed":true,"internalType":"address"},{"name":"value","type":"uint256","indexed":false,"internalType":"uint256"}],"anonymous":false},{"type":"event","name":"Unpaused","inputs":[{"name":"account","type":"address","indexed":false,"internalType":"address"}],"anonymous":false},{"type":"error","name":"AccessControlBadConfirmation","inputs":[]},{"type":"error","name":"AccessControlUnauthorizedAccount","inputs":[{"name":"account","type":"address","internalType":"address"},{"name":"neededRole","type":"bytes32","internalType":"bytes32"}]},{"type":"error","name":"ECDSAInvalidSignature","inputs":[]},{"type":"error","name":"ECDSAInvalidSignatureLength","inputs":[{"name":"length","type":"uint256","internalType":"uint256"}]},{"type":"error","name":"ECDSAInvalidSignatureS","inputs":[{"name":"s","type":"bytes32","internalType":"bytes32"}]},{"type":"error","name":"ERC20InsufficientAllowance","inputs":[{"name":"spender","type":"address","internalType":"address"},{"name":"allowance","type":"uint256","internalType":"uint256"},{"name":"needed","type":"uint256","internalType":"uint256"}]},{"type":"error","name":"ERC20InsufficientBalance","inputs":[{"name":"sender","type":"address","internalType":"address"},{"name":"balance","type":"uint256","internalType":"uint256"},{"name":"needed","type":"uint256","internalType":"uint256"}]},{"type":"error","name":"ERC20InvalidApprover","inputs":[{"name":"approver","type":"address","internalType":"address"}]},{"type":"error","name":"ERC20InvalidReceiver","inputs":[{"name":"receiver","type":"address","internalType":"address"}]},{"type":"error","name":"ERC20InvalidSender","inputs":[{"name":"sender","type":"address","internalType":"address"}]},{"type":"error","name":"ERC20InvalidSpender","inputs":[{"name":"spender","type":"address","internalType":"address"}]},{"type":"error","name":"ERC2612ExpiredSignature","inputs":[{"name":"deadline","type":"uint256","internalType":"uint256"}]},{"type":"error","name":"ERC2612InvalidSigner","inputs":[{"name":"signer","type":"address","internalType":"address"},{"name":"owner","type":"address","internalType":"address"}]},{"type":"error","name":"EnforcedPause","inputs":[]},{"type":"error","name":"ExpectedPause","inputs":[]},{"type":"error","name":"InitialSupplyExceedsMaxSupply","inputs":[{"name":"initialSupply","type":"uint256","internalType":"uint256"},{"name":"maxSupply","type":"uint256","internalType":"uint256"}]},{"type":"error","name":"InvalidAccountNonce","inputs":[{"name":"account","type":"address","internalType":"address"},{"name":"currentNonce","type":"uint256","internalType":"uint256"}]},{"type":"error","name":"InvalidShortString","inputs":[]},{"type":"error","name":"MaxSupplyExceeded","inputs":[{"name":"requestedTotal","type":"uint256","internalType":"uint256"},{"name":"maxSupply","type":"uint256","internalType":"uint256"}]},{"type":"error","name":"MintAmountZero","inputs":[]},{"type":"error","name":"MintRateLimitExceeded","inputs":[{"name":"requestedAmount","type":"uint256","internalType":"uint256"},{"name":"availableAmount","type":"uint256","internalType":"uint256"}]},{"type":"error","name":"StringTooLong","inputs":[{"name":"str","type":"string","internalType":"string"}]},{"type":"error","name":"ZeroAddress","inputs":[]}],"bytecode":{"object":"0x610160604052348015610010575f5ffd5b50604051613b93380380613b9383398181016040528101906100329190610969565b6040518060400160405280600781526020017f426c656d61737400000000000000000000000000000000000000000000000000815250806040518060400160405280600181526020017f31000000000000000000000000000000000000000000000000000000000000008152506040518060400160405280600781526020017f426c656d617374000000000000000000000000000000000000000000000000008152506040518060400160405280600381526020017f424c450000000000000000000000000000000000000000000000000000000000815250816003908161011a9190610bd1565b50806004908161012a9190610bd1565b50505061014160068361036160201b90919060201c565b610120818152505061015d60078261036160201b90919060201c565b6101408181525050818051906020012060e08181525050808051906020012061010081815250504660a0818152505061019a6103ae60201b60201c565b608081815250503073ffffffffffffffffffffffffffffffffffffffff1660c08173ffffffffffffffffffffffffffffffffffffffff16815250505050505f73ffffffffffffffffffffffffffffffffffffffff168173ffffffffffffffffffffffffffffffffffffffff160361023d576040517fd92e233d00000000000000000000000000000000000000000000000000000000815260040160405180910390fd5b6b033b2e3c9fd0803ce80000006a52b7d2dcc80cd2e400000011156102b2576a52b7d2dcc80cd2e40000006b033b2e3c9fd0803ce80000006040517f105585ae0000000000000000000000000000000000000000000000000000000081526004016102a9929190610caf565b60405180910390fd5b6102c45f5f1b8261040860201b60201c565b506102f57f9f2df0fed2c77648de5860a4cc508cd0818c85b8b8a1ab4ceeef8d981c8956a68261040860201b60201c565b506103267f65d7a28e3265b37a6474929f336521b332c1681b933f6cb9f3376673440d862a8261040860201b60201c565b5042600a819055506a52b7d2dcc80cd2e4000000600b8190555061035b816a52b7d2dcc80cd2e40000006104fe60201b60201c565b50610f2e565b5f6020835110156103825761037b8361058360201b60201c565b90506103a8565b82610392836105e860201b60201c565b5f0190816103a09190610bd1565b5060ff5f1b90505b92915050565b5f7f8b73c3c69bb8fe3d512ecc4cf759cc79239f7b179b0ffacaa9a75d522b39400f60e0516101005146306040516020016103ed959493929190610cfd565b60405160208183030381529060405280519060200120905090565b5f61041983836105f160201b60201c565b6104f457600160095f8581526020019081526020015f205f015f8473ffffffffffffffffffffffffffffffffffffffff1673ffffffffffffffffffffffffffffffffffffffff1681526020019081526020015f205f6101000a81548160ff02191690831515021790555061049161065560201b60201c565b73ffffffffffffffffffffffffffffffffffffffff168273ffffffffffffffffffffffffffffffffffffffff16847f2f8788117e7eff1d82e926ec794901d17c78024a50270940304540a733656f0d60405160405180910390a4600190506104f8565b5f90505b92915050565b5f73ffffffffffffffffffffffffffffffffffffffff168273ffffffffffffffffffffffffffffffffffffffff160361056e575f6040517fec442f050000000000000000000000000000000000000000000000000000000081526004016105659190610d4e565b60405180910390fd5b61057f5f838361065c60201b60201c565b5050565b5f5f829050601f815111156105cf57826040517f305a27a90000000000000000000000000000000000000000000000000000000081526004016105c69190610dcd565b60405180910390fd5b8051816105db90610e1a565b5f1c175f1b915050919050565b5f819050919050565b5f60095f8481526020019081526020015f205f015f8373ffffffffffffffffffffffffffffffffffffffff1673ffffffffffffffffffffffffffffffffffffffff1681526020019081526020015f205f9054906101000a900460ff16905092915050565b5f33905090565b61066d83838361067260201b60201c565b505050565b61068061069660201b60201c565b6106918383836106dd60201b60201c565b505050565b6106a46108f660201b60201c565b156106db576040517fd93c066500000000000000000000000000000000000000000000000000000000815260040160405180910390fd5b565b5f73ffffffffffffffffffffffffffffffffffffffff168373ffffffffffffffffffffffffffffffffffffffff160361072d578060025f8282546107219190610ead565b925050819055506107fb565b5f5f5f8573ffffffffffffffffffffffffffffffffffffffff1673ffffffffffffffffffffffffffffffffffffffff1681526020019081526020015f20549050818110156107b6578381836040517fe450d38c0000000000000000000000000000000000000000000000000000000081526004016107ad93929190610ee0565b60405180910390fd5b8181035f5f8673ffffffffffffffffffffffffffffffffffffffff1673ffffffffffffffffffffffffffffffffffffffff1681526020019081526020015f2081905550505b5f73ffffffffffffffffffffffffffffffffffffffff168273ffffffffffffffffffffffffffffffffffffffff1603610842578060025f828254039250508190555061088c565b805f5f8473ffffffffffffffffffffffffffffffffffffffff1673ffffffffffffffffffffffffffffffffffffffff1681526020019081526020015f205f82825401925050819055505b8173ffffffffffffffffffffffffffffffffffffffff168373ffffffffffffffffffffffffffffffffffffffff167fddf252ad1be2c89b69c2b068fc378daa952ba7f163c4a11628f55a4df523b3ef836040516108e99190610f15565b60405180910390a3505050565b5f60055f9054906101000a900460ff16905090565b5f5ffd5b5f73ffffffffffffffffffffffffffffffffffffffff82169050919050565b5f6109388261090f565b9050919050565b6109488161092e565b8114610952575f5ffd5b50565b5f815190506109638161093f565b92915050565b5f6020828403121561097e5761097d61090b565b5b5f61098b84828501610955565b91505092915050565b5f81519050919050565b7f4e487b71000000000000000000000000000000000000000000000000000000005f52604160045260245ffd5b7f4e487b71000000000000000000000000000000000000000000000000000000005f52602260045260245ffd5b5f6002820490506001821680610a0f57607f821691505b602082108103610a2257610a216109cb565b5b50919050565b5f819050815f5260205f209050919050565b5f6020601f8301049050919050565b5f82821b905092915050565b5f60088302610a847fffffffffffffffffffffffffffffffffffffffffffffffffffffffffffffffff82610a49565b610a8e8683610a49565b95508019841693508086168417925050509392505050565b5f819050919050565b5f819050919050565b5f610ad2610acd610ac884610aa6565b610aaf565b610aa6565b9050919050565b5f819050919050565b610aeb83610ab8565b610aff610af782610ad9565b848454610a55565b825550505050565b5f5f905090565b610b16610b07565b610b21818484610ae2565b505050565b5b81811015610b4457610b395f82610b0e565b600181019050610b27565b5050565b601f821115610b8957610b5a81610a28565b610b6384610a3a565b81016020851015610b72578190505b610b86610b7e85610a3a565b830182610b26565b50505b505050565b5f82821c905092915050565b5f610ba95f1984600802610b8e565b1980831691505092915050565b5f610bc18383610b9a565b9150826002028217905092915050565b610bda82610994565b67ffffffffffffffff811115610bf357610bf261099e565b5b610bfd82546109f8565b610c08828285610b48565b5f60209050601f831160018114610c39575f8415610c27578287015190505b610c318582610bb6565b865550610c98565b601f198416610c4786610a28565b5f5b82811015610c6e57848901518255600182019150602085019450602081019050610c49565b86831015610c8b5784890151610c87601f891682610b9a565b8355505b6001600288020188555050505b505050505050565b610ca981610aa6565b82525050565b5f604082019050610cc25f830185610ca0565b610ccf6020830184610ca0565b9392505050565b5f819050919050565b610ce881610cd6565b82525050565b610cf78161092e565b82525050565b5f60a082019050610d105f830188610cdf565b610d1d6020830187610cdf565b610d2a6040830186610cdf565b610d376060830185610ca0565b610d446080830184610cee565b9695505050505050565b5f602082019050610d615f830184610cee565b92915050565b5f82825260208201905092915050565b8281835e5f83830152505050565b5f601f19601f8301169050919050565b5f610d9f82610994565b610da98185610d67565b9350610db9818560208601610d77565b610dc281610d85565b840191505092915050565b5f6020820190508181035f830152610de58184610d95565b905092915050565b5f81519050919050565b5f819050602082019050919050565b5f610e118251610cd6565b80915050919050565b5f610e2482610ded565b82610e2e84610df7565b9050610e3981610e06565b92506020821015610e7957610e747fffffffffffffffffffffffffffffffffffffffffffffffffffffffffffffffff83602003600802610a49565b831692505b5050919050565b7f4e487b71000000000000000000000000000000000000000000000000000000005f52601160045260245ffd5b5f610eb782610aa6565b9150610ec283610aa6565b9250828201905080821115610eda57610ed9610e80565b5b92915050565b5f606082019050610ef35f830186610cee565b610f006020830185610ca0565b610f0d6040830184610ca0565b949350505050565b5f602082019050610f285f830184610ca0565b92915050565b60805160a05160c05160e051610100516101205161014051612c14610f7f5f395f61180001525f6117c501525f611b4101525f611b2001525f61144d01525f6114a301525f6114cc0152612c145ff3fe608060405234801561000f575f5ffd5b506004361061020f575f3560e01c80635c975abb11610123578063a217fddf116100ab578063d547741f1161007a578063d547741f146105f9578063dd62ed3e14610615578063e63ab1e914610645578063f18087bf14610663578063f7ee7a43146106815761020f565b8063a217fddf14610571578063a9059cbb1461058f578063d505accf146105bf578063d5391393146105db5761020f565b80638456cb59116100f25780638456cb59146104d757806384b0196e146104e15780638e80ff5d1461050557806391d148541461052357806395d89b41146105535761020f565b80635c975abb1461043d57806370a082311461045b57806379cc67901461048b5780637ecebe00146104a75761020f565b8063313ce567116101a657806336568abe1161017557806336568abe146103c15780633f4ba83a146103dd57806340c10f19146103e757806342966c681461040357806353bf516d1461041f5761020f565b8063313ce5671461034957806332cb6b0c1461036757806334d9c54b146103855780633644e515146103a35761020f565b806318160ddd116101e257806318160ddd146102af57806323b872dd146102cd578063248a9ca3146102fd5780632f2ff15d1461032d5761020f565b806301ffc9a71461021357806306fdde03146102435780630898c94914610261578063095ea7b31461027f575b5f5ffd5b61022d600480360381019061022891906122d8565b61069f565b60405161023a919061231d565b60405180910390f35b61024b610718565b60405161025891906123a6565b60405180910390f35b6102696107a8565b60405161027691906123de565b60405180910390f35b6102996004803603810190610294919061247b565b6107e0565b6040516102a6919061231d565b60405180910390f35b6102b7610802565b6040516102c491906123de565b60405180910390f35b6102e760048036038101906102e291906124b9565b61080b565b6040516102f4919061231d565b60405180910390f35b6103176004803603810190610312919061253c565b610839565b6040516103249190612576565b60405180910390f35b6103476004803603810190610342919061258f565b610856565b005b610351610878565b60405161035e91906125e8565b60405180910390f35b61036f610880565b60405161037c91906123de565b60405180910390f35b61038d610890565b60405161039a91906123de565b60405180910390f35b6103ab6108f3565b6040516103b89190612576565b60405180910390f35b6103db60048036038101906103d6919061258f565b610901565b005b6103e561097c565b005b61040160048036038101906103fc919061247b565b6109ff565b005b61041d60048036038101906104189190612601565b610c12565b005b610427610c26565b60405161043491906123de565b60405180910390f35b610445610c2c565b604051610452919061231d565b60405180910390f35b6104756004803603810190610470919061262c565b610c41565b60405161048291906123de565b60405180910390f35b6104a560048036038101906104a0919061247b565b610c86565b005b6104c160048036038101906104bc919061262c565b610ca6565b6040516104ce91906123de565b60405180910390f35b6104df610cb7565b005b6104e9610d3a565b6040516104fc9796959493929190612757565b60405180910390f35b61050d610ddf565b60405161051a91906123de565b60405180910390f35b61053d6004803603810190610538919061258f565b610de5565b60405161054a919061231d565b60405180910390f35b61055b610e49565b60405161056891906123a6565b60405180910390f35b610579610ed9565b6040516105869190612576565b60405180910390f35b6105a960048036038101906105a4919061247b565b610edf565b6040516105b6919061231d565b60405180910390f35b6105d960048036038101906105d49190612803565b610f01565b005b6105e3611046565b6040516105f09190612576565b60405180910390f35b610613600480360381019061060e919061258f565b61106a565b005b61062f600480360381019061062a91906128a0565b61108c565b60405161063c91906123de565b60405180910390f35b61064d61110e565b60405161065a9190612576565b60405180910390f35b61066b611132565b60405161067891906123de565b60405180910390f35b610689611140565b60405161069691906123de565b60405180910390f35b5f7f7965db0b000000000000000000000000000000000000000000000000000000007bffffffffffffffffffffffffffffffffffffffffffffffffffffffff1916827bffffffffffffffffffffffffffffffffffffffffffffffffffffffff19161480610711575061071082611147565b5b9050919050565b6060600380546107279061290b565b80601f01602080910402602001604051908101604052809291908181526020018280546107539061290b565b801561079e5780601f106107755761010080835404028352916020019161079e565b820191905f5260205f20905b81548152906001019060200180831161078157829003601f168201915b5050505050905090565b5f5f62015180600a546107bb9190612968565b90508042106107cd575f9150506107dd565b42816107d9919061299b565b9150505b90565b5f5f6107ea6111b0565b90506107f78185856111b7565b600191505092915050565b5f600254905090565b5f5f6108156111b0565b90506108228582856111c9565b61082d85858561125c565b60019150509392505050565b5f60095f8381526020019081526020015f20600101549050919050565b61085f82610839565b6108688161134c565b6108728383611360565b50505050565b5f6012905090565b6b033b2e3c9fd0803ce800000081565b5f62015180600a546108a29190612968565b42106108ba5769152d02c7e14af680000090506108f0565b69152d02c7e14af6800000600b54106108d5575f90506108f0565b600b5469152d02c7e14af68000006108ed919061299b565b90505b90565b5f6108fc61144a565b905090565b6109096111b0565b73ffffffffffffffffffffffffffffffffffffffff168173ffffffffffffffffffffffffffffffffffffffff161461096d576040517f6697b23200000000000000000000000000000000000000000000000000000000815260040160405180910390fd5b6109778282611500565b505050565b7f65d7a28e3265b37a6474929f336521b332c1681b933f6cb9f3376673440d862a6109a68161134c565b6109ae6115ea565b3373ffffffffffffffffffffffffffffffffffffffff167f107553d8191d85b405879cf752997865edd48d94e20bda4dd27223c94b31a7cc426040516109f491906123de565b60405180910390a250565b7f9f2df0fed2c77648de5860a4cc508cd0818c85b8b8a1ab4ceeef8d981c8956a6610a298161134c565b5f8203610a62576040517f39d7ecde00000000000000000000000000000000000000000000000000000000815260040160405180910390fd5b5f82610a6c610802565b610a769190612968565b90506b033b2e3c9fd0803ce8000000811115610ad757806b033b2e3c9fd0803ce80000006040517fea058246000000000000000000000000000000000000000000000000000000008152600401610ace9291906129ce565b60405180910390fd5b62015180600a54610ae89190612968565b4210610afd575f600b8190555042600a819055505b5f83600b54610b0c9190612968565b905069152d02c7e14af6800000811115610b95575f69152d02c7e14af6800000600b541015610b5257600b5469152d02c7e14af6800000610b4d919061299b565b610b54565b5f5b905084816040517f7c7da0a7000000000000000000000000000000000000000000000000000000008152600401610b8c9291906129ce565b60405180910390fd5b80600b81905550610ba6858561164b565b3373ffffffffffffffffffffffffffffffffffffffff168573ffffffffffffffffffffffffffffffffffffffff167ffd1ba5519feb014ad2f631cbd516bd3cec96be935749391554d122972593e7bf86604051610c0391906123de565b60405180910390a35050505050565b610c23610c1d6111b0565b826116ca565b50565b600b5481565b5f60055f9054906101000a900460ff16905090565b5f5f5f8373ffffffffffffffffffffffffffffffffffffffff1673ffffffffffffffffffffffffffffffffffffffff1681526020019081526020015f20549050919050565b610c9882610c926111b0565b836111c9565b610ca282826116ca565b5050565b5f610cb082611749565b9050919050565b7f65d7a28e3265b37a6474929f336521b332c1681b933f6cb9f3376673440d862a610ce18161134c565b610ce961175a565b3373ffffffffffffffffffffffffffffffffffffffff167f80170b5fcdd2bf1e0660ef4b8851f86685f64d41b1a19de1471947ece8725aac42604051610d2f91906123de565b60405180910390a250565b5f6060805f5f5f6060610d4b6117bc565b610d536117f7565b46305f5f1b5f67ffffffffffffffff811115610d7257610d716129f5565b5b604051908082528060200260200182016040528015610da05781602001602082028036833780820191505090505b507f0f00000000000000000000000000000000000000000000000000000000000000959493929190965096509650965096509650965090919293949596565b600a5481565b5f60095f8481526020019081526020015f205f015f8373ffffffffffffffffffffffffffffffffffffffff1673ffffffffffffffffffffffffffffffffffffffff1681526020019081526020015f205f9054906101000a900460ff16905092915050565b606060048054610e589061290b565b80601f0160208091040260200160405190810160405280929190818152602001828054610e849061290b565b8015610ecf5780601f10610ea657610100808354040283529160200191610ecf565b820191905f5260205f20905b815481529060010190602001808311610eb257829003601f168201915b5050505050905090565b5f5f1b81565b5f5f610ee96111b0565b9050610ef681858561125c565b600191505092915050565b83421115610f4657836040517f62791302000000000000000000000000000000000000000000000000000000008152600401610f3d91906123de565b60405180910390fd5b5f7f6e71edae12b1b97f4d1f60370fef10105fa2faae0126114a169c64845d6126c9888888610f748c611832565b89604051602001610f8a96959493929190612a22565b6040516020818303038152906040528051906020012090505f610fac82611885565b90505f610fbb8287878761189e565b90508973ffffffffffffffffffffffffffffffffffffffff168173ffffffffffffffffffffffffffffffffffffffff161461102f57808a6040517f4b800e46000000000000000000000000000000000000000000000000000000008152600401611026929190612a81565b60405180910390fd5b61103a8a8a8a6111b7565b50505050505050505050565b7f9f2df0fed2c77648de5860a4cc508cd0818c85b8b8a1ab4ceeef8d981c8956a681565b61107382610839565b61107c8161134c565b6110868383611500565b50505050565b5f60015f8473ffffffffffffffffffffffffffffffffffffffff1673ffffffffffffffffffffffffffffffffffffffff1681526020019081526020015f205f8373ffffffffffffffffffffffffffffffffffffffff1673ffffffffffffffffffffffffffffffffffffffff1681526020019081526020015f2054905092915050565b7f65d7a28e3265b37a6474929f336521b332c1681b933f6cb9f3376673440d862a81565b69152d02c7e14af680000081565b6201518081565b5f7f01ffc9a7000000000000000000000000000000000000000000000000000000007bffffffffffffffffffffffffffffffffffffffffffffffffffffffff1916827bffffffffffffffffffffffffffffffffffffffffffffffffffffffff1916149050919050565b5f33905090565b6111c483838360016118cc565b505050565b5f6111d4848461108c565b90507fffffffffffffffffffffffffffffffffffffffffffffffffffffffffffffffff8110156112565781811015611247578281836040517ffb8f41b200000000000000000000000000000000000000000000000000000000815260040161123e93929190612aa8565b60405180910390fd5b61125584848484035f6118cc565b5b50505050565b5f73ffffffffffffffffffffffffffffffffffffffff168373ffffffffffffffffffffffffffffffffffffffff16036112cc575f6040517f96c6fd1e0000000000000000000000000000000000000000000000000000000081526004016112c39190612add565b60405180910390fd5b5f73ffffffffffffffffffffffffffffffffffffffff168273ffffffffffffffffffffffffffffffffffffffff160361133c575f6040517fec442f050000000000000000000000000000000000000000000000000000000081526004016113339190612add565b60405180910390fd5b611347838383611a9b565b505050565b61135d816113586111b0565b611aab565b50565b5f61136b8383610de5565b61144057600160095f8581526020019081526020015f205f015f8473ffffffffffffffffffffffffffffffffffffffff1673ffffffffffffffffffffffffffffffffffffffff1681526020019081526020015f205f6101000a81548160ff0219169083151502179055506113dd6111b0565b73ffffffffffffffffffffffffffffffffffffffff168273ffffffffffffffffffffffffffffffffffffffff16847f2f8788117e7eff1d82e926ec794901d17c78024a50270940304540a733656f0d60405160405180910390a460019050611444565b5f90505b92915050565b5f7f000000000000000000000000000000000000000000000000000000000000000073ffffffffffffffffffffffffffffffffffffffff163073ffffffffffffffffffffffffffffffffffffffff161480156114c557507f000000000000000000000000000000000000000000000000000000000000000046145b156114f2577f000000000000000000000000000000000000000000000000000000000000000090506114fd565b6114fa611afc565b90505b90565b5f61150b8383610de5565b156115e0575f60095f8581526020019081526020015f205f015f8473ffffffffffffffffffffffffffffffffffffffff1673ffffffffffffffffffffffffffffffffffffffff1681526020019081526020015f205f6101000a81548160ff02191690831515021790555061157d6111b0565b73ffffffffffffffffffffffffffffffffffffffff168273ffffffffffffffffffffffffffffffffffffffff16847ff6391f5c32d9c69d2a47ea670b442974b53935d1edc7fd64eb21e047a839171b60405160405180910390a4600190506115e4565b5f90505b92915050565b6115f2611b91565b5f60055f6101000a81548160ff0219169083151502179055507f5db9ee0a495bf2e6ff9c91a7834c1ba4fdd244a5e8aa4e537bd38aeae4b073aa6116346111b0565b6040516116419190612add565b60405180910390a1565b5f73ffffffffffffffffffffffffffffffffffffffff168273ffffffffffffffffffffffffffffffffffffffff16036116bb575f6040517fec442f050000000000000000000000000000000000000000000000000000000081526004016116b29190612add565b60405180910390fd5b6116c65f8383611a9b565b5050565b5f73ffffffffffffffffffffffffffffffffffffffff168273ffffffffffffffffffffffffffffffffffffffff160361173a575f6040517f96c6fd1e0000000000000000000000000000000000000000000000000000000081526004016117319190612add565b60405180910390fd5b611745825f83611a9b565b5050565b5f61175382611bd1565b9050919050565b611762611c17565b600160055f6101000a81548160ff0219169083151502179055507f62e78cea01bee320cd4e420270b5ea74000d11b0c9f74754ebdbfc544b05a2586117a56111b0565b6040516117b29190612add565b60405180910390a1565b60606117f260067f0000000000000000000000000000000000000000000000000000000000000000611c5890919063ffffffff16565b905090565b606061182d60077f0000000000000000000000000000000000000000000000000000000000000000611c5890919063ffffffff16565b905090565b5f60085f8373ffffffffffffffffffffffffffffffffffffffff1673ffffffffffffffffffffffffffffffffffffffff1681526020019081526020015f205f815480929190600101919050559050919050565b5f61189761189161144a565b83611d05565b9050919050565b5f5f5f5f6118ae88888888611d45565b9250925092506118be8282611e2c565b829350505050949350505050565b5f73ffffffffffffffffffffffffffffffffffffffff168473ffffffffffffffffffffffffffffffffffffffff160361193c575f6040517fe602df050000000000000000000000000000000000000000000000000000000081526004016119339190612add565b60405180910390fd5b5f73ffffffffffffffffffffffffffffffffffffffff168373ffffffffffffffffffffffffffffffffffffffff16036119ac575f6040517f94280d620000000000000000000000000000000000000000000000000000000081526004016119a39190612add565b60405180910390fd5b8160015f8673ffffffffffffffffffffffffffffffffffffffff1673ffffffffffffffffffffffffffffffffffffffff1681526020019081526020015f205f8573ffffffffffffffffffffffffffffffffffffffff1673ffffffffffffffffffffffffffffffffffffffff1681526020019081526020015f20819055508015611a95578273ffffffffffffffffffffffffffffffffffffffff168473ffffffffffffffffffffffffffffffffffffffff167f8c5be1e5ebec7d5bd14f71427d1e84f3dd0314c0f7b2291e5b200ac8c7c3b92584604051611a8c91906123de565b60405180910390a35b50505050565b611aa6838383611f8e565b505050565b611ab58282610de5565b611af85780826040517fe2517d3f000000000000000000000000000000000000000000000000000000008152600401611aef929190612af6565b60405180910390fd5b5050565b5f7f8b73c3c69bb8fe3d512ecc4cf759cc79239f7b179b0ffacaa9a75d522b39400f7f00000000000000000000000000000000000000000000000000000000000000007f00000000000000000000000000000000000000000000000000000000000000004630604051602001611b76959493929190612b1d565b60405160208183030381529060405280519060200120905090565b611b99610c2c565b611bcf576040517f8dfc202b00000000000000000000000000000000000000000000000000000000815260040160405180910390fd5b565b5f60085f8373ffffffffffffffffffffffffffffffffffffffff1673ffffffffffffffffffffffffffffffffffffffff1681526020019081526020015f20549050919050565b611c1f610c2c565b15611c56576040517fd93c066500000000000000000000000000000000000000000000000000000000815260040160405180910390fd5b565b606060ff5f1b8314611c7457611c6d83611fa6565b9050611cff565b818054611c809061290b565b80601f0160208091040260200160405190810160405280929190818152602001828054611cac9061290b565b8015611cf75780601f10611cce57610100808354040283529160200191611cf7565b820191905f5260205f20905b815481529060010190602001808311611cda57829003601f168201915b505050505090505b92915050565b5f6040517f190100000000000000000000000000000000000000000000000000000000000081528360028201528260228201526042812091505092915050565b5f5f5f7f7fffffffffffffffffffffffffffffff5d576e7357a4501ddfe92f46681b20a0845f1c1115611d81575f600385925092509250611e22565b5f6001888888886040515f8152602001604052604051611da49493929190612b6e565b6020604051602081039080840390855afa158015611dc4573d5f5f3e3d5ffd5b5050506020604051035190505f73ffffffffffffffffffffffffffffffffffffffff168173ffffffffffffffffffffffffffffffffffffffff1603611e15575f60015f5f1b93509350935050611e22565b805f5f5f1b935093509350505b9450945094915050565b5f6003811115611e3f57611e3e612bb1565b5b826003811115611e5257611e51612bb1565b5b0315611f8a5760016003811115611e6c57611e6b612bb1565b5b826003811115611e7f57611e7e612bb1565b5b03611eb6576040517ff645eedf00000000000000000000000000000000000000000000000000000000815260040160405180910390fd5b60026003811115611eca57611ec9612bb1565b5b826003811115611edd57611edc612bb1565b5b03611f2157805f1c6040517ffce698f7000000000000000000000000000000000000000000000000000000008152600401611f1891906123de565b60405180910390fd5b600380811115611f3457611f33612bb1565b5b826003811115611f4757611f46612bb1565b5b03611f8957806040517fd78bce0c000000000000000000000000000000000000000000000000000000008152600401611f809190612576565b60405180910390fd5b5b5050565b611f96611c17565b611fa1838383612018565b505050565b60605f611fb283612231565b90505f602067ffffffffffffffff811115611fd057611fcf6129f5565b5b6040519080825280601f01601f1916602001820160405280156120025781602001600182028036833780820191505090505b5090508181528360208201528092505050919050565b5f73ffffffffffffffffffffffffffffffffffffffff168373ffffffffffffffffffffffffffffffffffffffff1603612068578060025f82825461205c9190612968565b92505081905550612136565b5f5f5f8573ffffffffffffffffffffffffffffffffffffffff1673ffffffffffffffffffffffffffffffffffffffff1681526020019081526020015f20549050818110156120f1578381836040517fe450d38c0000000000000000000000000000000000000000000000000000000081526004016120e893929190612aa8565b60405180910390fd5b8181035f5f8673ffffffffffffffffffffffffffffffffffffffff1673ffffffffffffffffffffffffffffffffffffffff1681526020019081526020015f2081905550505b5f73ffffffffffffffffffffffffffffffffffffffff168273ffffffffffffffffffffffffffffffffffffffff160361217d578060025f82825403925050819055506121c7565b805f5f8473ffffffffffffffffffffffffffffffffffffffff1673ffffffffffffffffffffffffffffffffffffffff1681526020019081526020015f205f82825401925050819055505b8173ffffffffffffffffffffffffffffffffffffffff168373ffffffffffffffffffffffffffffffffffffffff167fddf252ad1be2c89b69c2b068fc378daa952ba7f163c4a11628f55a4df523b3ef8360405161222491906123de565b60405180910390a3505050565b5f5f60ff835f1c169050601f811115612276576040517fb3512b0c00000000000000000000000000000000000000000000000000000000815260040160405180910390fd5b80915050919050565b5f5ffd5b5f7fffffffff0000000000000000000000000000000000000000000000000000000082169050919050565b6122b781612283565b81146122c1575f5ffd5b50565b5f813590506122d2816122ae565b92915050565b5f602082840312156122ed576122ec61227f565b5b5f6122fa848285016122c4565b91505092915050565b5f8115159050919050565b61231781612303565b82525050565b5f6020820190506123305f83018461230e565b92915050565b5f81519050919050565b5f82825260208201905092915050565b8281835e5f83830152505050565b5f601f19601f8301169050919050565b5f61237882612336565b6123828185612340565b9350612392818560208601612350565b61239b8161235e565b840191505092915050565b5f6020820190508181035f8301526123be818461236e565b905092915050565b5f819050919050565b6123d8816123c6565b82525050565b5f6020820190506123f15f8301846123cf565b92915050565b5f73ffffffffffffffffffffffffffffffffffffffff82169050919050565b5f612420826123f7565b9050919050565b61243081612416565b811461243a575f5ffd5b50565b5f8135905061244b81612427565b92915050565b61245a816123c6565b8114612464575f5ffd5b50565b5f8135905061247581612451565b92915050565b5f5f604083850312156124915761249061227f565b5b5f61249e8582860161243d565b92505060206124af85828601612467565b9150509250929050565b5f5f5f606084860312156124d0576124cf61227f565b5b5f6124dd8682870161243d565b93505060206124ee8682870161243d565b92505060406124ff86828701612467565b9150509250925092565b5f819050919050565b61251b81612509565b8114612525575f5ffd5b50565b5f8135905061253681612512565b92915050565b5f602082840312156125515761255061227f565b5b5f61255e84828501612528565b91505092915050565b61257081612509565b82525050565b5f6020820190506125895f830184612567565b92915050565b5f5f604083850312156125a5576125a461227f565b5b5f6125b285828601612528565b92505060206125c38582860161243d565b9150509250929050565b5f60ff82169050919050565b6125e2816125cd565b82525050565b5f6020820190506125fb5f8301846125d9565b92915050565b5f602082840312156126165761261561227f565b5b5f61262384828501612467565b91505092915050565b5f602082840312156126415761264061227f565b5b5f61264e8482850161243d565b91505092915050565b5f7fff0000000000000000000000000000000000000000000000000000000000000082169050919050565b61268b81612657565b82525050565b61269a81612416565b82525050565b5f81519050919050565b5f82825260208201905092915050565b5f819050602082019050919050565b6126d2816123c6565b82525050565b5f6126e383836126c9565b60208301905092915050565b5f602082019050919050565b5f612705826126a0565b61270f81856126aa565b935061271a836126ba565b805f5b8381101561274a57815161273188826126d8565b975061273c836126ef565b92505060018101905061271d565b5085935050505092915050565b5f60e08201905061276a5f83018a612682565b818103602083015261277c818961236e565b90508181036040830152612790818861236e565b905061279f60608301876123cf565b6127ac6080830186612691565b6127b960a0830185612567565b81810360c08301526127cb81846126fb565b905098975050505050505050565b6127e2816125cd565b81146127ec575f5ffd5b50565b5f813590506127fd816127d9565b92915050565b5f5f5f5f5f5f5f60e0888a03121561281e5761281d61227f565b5b5f61282b8a828b0161243d565b975050602061283c8a828b0161243d565b965050604061284d8a828b01612467565b955050606061285e8a828b01612467565b945050608061286f8a828b016127ef565b93505060a06128808a828b01612528565b92505060c06128918a828b01612528565b91505092959891949750929550565b5f5f604083850312156128b6576128b561227f565b5b5f6128c38582860161243d565b92505060206128d48582860161243d565b9150509250929050565b7f4e487b71000000000000000000000000000000000000000000000000000000005f52602260045260245ffd5b5f600282049050600182168061292257607f821691505b602082108103612935576129346128de565b5b50919050565b7f4e487b71000000000000000000000000000000000000000000000000000000005f52601160045260245ffd5b5f612972826123c6565b915061297d836123c6565b92508282019050808211156129955761299461293b565b5b92915050565b5f6129a5826123c6565b91506129b0836123c6565b92508282039050818111156129c8576129c761293b565b5b92915050565b5f6040820190506129e15f8301856123cf565b6129ee60208301846123cf565b9392505050565b7f4e487b71000000000000000000000000000000000000000000000000000000005f52604160045260245ffd5b5f60c082019050612a355f830189612567565b612a426020830188612691565b612a4f6040830187612691565b612a5c60608301866123cf565b612a6960808301856123cf565b612a7660a08301846123cf565b979650505050505050565b5f604082019050612a945f830185612691565b612aa16020830184612691565b9392505050565b5f606082019050612abb5f830186612691565b612ac860208301856123cf565b612ad560408301846123cf565b949350505050565b5f602082019050612af05f830184612691565b92915050565b5f604082019050612b095f830185612691565b612b166020830184612567565b9392505050565b5f60a082019050612b305f830188612567565b612b3d6020830187612567565b612b4a6040830186612567565b612b5760608301856123cf565b612b646080830184612691565b9695505050505050565b5f608082019050612b815f830187612567565b612b8e60208301866125d9565b612b9b6040830185612567565b612ba86060830184612567565b95945050505050565b7f4e487b71000000000000000000000000000000000000000000000000000000005f52602160045260245ffdfea2646970667358221220092cd746cb20f02872b50fb9b6546abdb57f0e0281adb607fe2b0a251b2289ae64736f6c634300081e0033","linkReferences":{}},"methodIdentifiers":{"DEFAULT_ADMIN_ROLE()":"a217fddf","DOMAIN_SEPARATOR()":"3644e515","MAX_MINT_PER_PERIOD()":"f18087bf","MAX_SUPPLY()":"32cb6b0c","MINTER_ROLE()":"d5391393","MINT_COOLDOWN()":"f7ee7a43","PAUSER_ROLE()":"e63ab1e9","allowance(address,address)":"dd62ed3e","approve(address,uint256)":"095ea7b3","availableMintAmount()":"34d9c54b","balanceOf(address)":"70a08231","burn(uint256)":"42966c68","burnFrom(address,uint256)":"79cc6790","decimals()":"313ce567","eip712Domain()":"84b0196e","getRoleAdmin(bytes32)":"248a9ca3","grantRole(bytes32,address)":"2f2ff15d","hasRole(bytes32,address)":"91d14854","lastMintTimestamp()":"8e80ff5d","mint(address,uint256)":"40c10f19","mintedInCurrentPeriod()":"53bf516d","name()":"06fdde03","nonces(address)":"7ecebe00","pause()":"8456cb59","paused()":"5c975abb","permit(address,address,uint256,uint256,uint8,bytes32,bytes32)":"d505accf","renounceRole(bytes32,address)":"36568abe","revokeRole(bytes32,address)":"d547741f","supportsInterface(bytes4)":"01ffc9a7","symbol()":"95d89b41","timeUntilNextPeriod()":"0898c949","totalSupply()":"18160ddd","transfer(address,uint256)":"a9059cbb","transferFrom(address,address,uint256)":"23b872dd","unpause()":"3f4ba83a"},"id":45}