{"abi":[{"type":"constructor","inputs":[{"name":"initialOwner","type":"address","internalType":"address"}],"stateMutability":"nonpayable"},{"type":"function","name":"DOMAIN_SEPARATOR","inputs":[],"outputs":[{"name":"","type":"bytes32","internalType":"bytes32"}],"stateMutability":"view"},{"type":"function","name":"allowance","inputs":[{"name":"owner","type":"address","internalType":"address"},{"name":"spender","type":"address","internalType":"address"}],"outputs":[{"name":"","type":"uint256","internalType":"uint256"}],"stateMutability":"view"},{"type":"function","name":"approve","inputs":[{"name":"spender","type":"address","internalType":"address"},{"name":"value","type":"uint256","internalType":"uint256"}],"outputs":[{"name":"","type":"bool","internalType":"bool"}],"stateMutability":"nonpayable"},{"type":"function","name":"balanceOf","inputs":[{"name":"account","type":"address","internalType":"address"}],"outputs":[{"name":"","type":"uint256","internalType":"uint256"}],"stateMutability":"view"},{"type":"function","name":"burn","inputs":[{"name":"value","type":"uint256","internalType":"uint256"}],"outputs":[],"stateMutability":"nonpayable"},{"type":"function","name":"burnFrom","inputs":[{"name":"account","type":"address","internalType":"address"},{"name":"value","type":"uint256","internalType":"uint256"}],"outputs":[],"stateMutability":"nonpayable"},{"type":"function","name":"decimals","inputs":[],"outputs":[{"name":"","type":"uint8","internalType":"uint8"}],"stateMutability":"view"},{"type":"function","name":"eip712Domain","inputs":[],"outputs":[{"name":"fields","type":"bytes1","internalType":"bytes1"},{"name":"name","type":"string","internalType":"string"},{"name":"version","type":"string","internalType":"string"},{"name":"chainId","type":"uint256","internalType":"uint256"},{"name":"verifyingContract","type":"address","internalType":"address"},{"name":"salt","type":"bytes32","internalType":"bytes32"},{"name":"extensions","type":"uint256[]","internalType":"uint256[]"}],"stateMutability":"view"},{"type":"function","name":"mint","inputs":[{"name":"to","type":"address","internalType":"address"},{"name":"amount","type":"uint256","internalType":"uint256"}],"outputs":[],"stateMutability":"nonpayable"},{"type":"function","name":"name","inputs":[],"outputs":[{"name":"","type":"string","internalType":"string"}],"stateMutability":"view"},{"type":"function","name":"nonces","inputs":[{"name":"owner","type":"address","internalType":"address"}],"outputs":[{"name":"","type":"uint256","internalType":"uint256"}],"stateMutability":"view"},{"type":"function","name":"owner","inputs":[],"outputs":[{"name":"","type":"address","internalType":"address"}],"stateMutability":"view"},{"type":"function","name":"pause","inputs":[],"outputs":[],"stateMutability":"nonpayable"},{"type":"function","name":"paused","inputs":[],"outputs":[{"name":"","type":"bool","internalType":"bool"}],"stateMutability":"view"},{"type":"function","name":"permit","inputs":[{"name":"owner","type":"address","internalType":"address"},{"name":"spender","type":"address","internalType":"address"},{"name":"value","type":"uint256","internalType":"uint256"},{"name":"deadline","type":"uint256","internalType":"uint256"},{"name":"v","type":"uint8","internalType":"uint8"},{"name":"r","type":"bytes32","internalType":"bytes32"},{"name":"s","type":"bytes32","internalType":"bytes32"}],"outputs":[],"stateMutability":"nonpayable"},{"type":"function","name":"renounceOwnership","inputs":[],"outputs":[],"stateMutability":"nonpayable"},{"type":"function","name":"symbol","inputs":[],"outputs":[{"name":"","type":"string","internalType":"string"}],"stateMutability":"view"},{"type":"function","name":"totalSupply","inputs":[],"outputs":[{"name":"","type":"uint256","internalType":"uint256"}],"stateMutability":"view"},{"type":"function","name":"transfer","inputs":[{"name":"to","type":"address","internalType":"address"},{"name":"value","type":"uint256","internalType":"uint256"}],"outputs":[{"name":"","type":"bool","internalType":"bool"}],"stateMutability":"nonpayable"},{"type":"function","name":"transferFrom","inputs":[{"name":"from","type":"address","internalType":"address"},{"name":"to","type":"address","internalType":"address"},{"name":"value","type":"uint256","internalType":"uint256"}],"outputs":[{"name":"","type":"bool","internalType":"bool"}],"stateMutability":"nonpayable"},{"type":"function","name":"transferOwnership","inputs":[{"name":"newOwner","type":"address","internalType":"address"}],"outputs":[],"stateMutability":"nonpayable"},{"type":"function","name":"unpause","inputs":[],"outputs":[],"stateMutability":"nonpayable"},{"type":"event","name":"Approval","inputs":[{"name":"owner","type":"address","indexed":true,"internalType":"address"},{"name":"spender","type":"address","indexed":true,"internalType":"address"},{"name":"value","type":"uint256","indexed":false,"internalType":"uint256"}],"anonymous":false},{"type":"event","name":"EIP712DomainChanged","inputs":[],"anonymous":false},{"type":"event","name":"OwnershipTransferred","inputs":[{"name":"previousOwner","type":"address","indexed":true,"internalType":"address"},{"name":"newOwner","type":"address","indexed":true,"internalType":"address"}],"anonymous":false},{"type":"event","name":"Paused","inputs":[{"name":"account","type":"address","indexed":false,"internalType":"address"}],"anonymous":false},{"type":"event","name":"Transfer","inputs":[{"name":"from","type":"address","indexed":true,"internalType":"address"},{"name":"to","type":"address","indexed":true,"internalType":"address"},{"name":"value","type":"uint256","indexed":false,"internalType":"uint256"}],"anonymous":false},{"type":"event","name":"Unpaused","inputs":[{"name":"account","type":"address","indexed":false,"internalType":"address"}],"anonymous":false},{"type":"error","name":"ECDSAInvalidSignature","inputs":[]},{"type":"error","name":"ECDSAInvalidSignatureLength","inputs":[{"name":"length","type":"uint256","internalType":"uint256"}]},{"type":"error","name":"ECDSAInvalidSignatureS","inputs":[{"name":"s","type":"bytes32","internalType":"bytes32"}]},{"type":"error","name":"ERC20InsufficientAllowance","inputs":[{"name":"spender","type":"address","internalType":"address"},{"name":"allowance","type":"uint256","internalType":"uint256"},{"name":"needed","type":"uint256","internalType":"uint256"}]},{"type":"error","name":"ERC20InsufficientBalance","inputs":[{"name":"sender","type":"address","internalType":"address"},{"name":"balance","type":"uint256","internalType":"uint256"},{"name":"needed","type":"uint256","internalType":"uint256"}]},{"type":"error","name":"ERC20InvalidApprover","inputs":[{"name":"approver","type":"address","internalType":"address"}]},{"type":"error","name":"ERC20InvalidReceiver","inputs":[{"name":"receiver","type":"address","internalType":"address"}]},{"type":"error","name":"ERC20InvalidSender","inputs":[{"name":"sender","type":"address","internalType":"address"}]},{"type":"error","name":"ERC20InvalidSpender","inputs":[{"name":"spender","type":"address","internalType":"address"}]},{"type":"error","name":"ERC2612ExpiredSignature","inputs":[{"name":"deadline","type":"uint256","internalType":"uint256"}]},{"type":"error","name":"ERC2612InvalidSigner","inputs":[{"name":"signer","type":"address","internalType":"address"},{"name":"owner","type":"address","internalType":"address"}]},{"type":"error","name":"EnforcedPause","inputs":[]},{"type":"error","name":"ExpectedPause","inputs":[]},{"type":"error","name":"InvalidAccountNonce","inputs":[{"name":"account","type":"address","internalType":"address"},{"name":"currentNonce","type":"uint256","internalType":"uint256"}]},{"type":"error","name":"InvalidShortString","inputs":[]},{"type":"error","name":"OwnableInvalidOwner","inputs":[{"name":"owner","type":"address","internalType":"address"}]},{"type":"error","name":"OwnableUnauthorizedAccount","inputs":[{"name":"account","type":"address","internalType":"address"}]},{"type":"error","name":"StringTooLong","inputs":[{"name":"str","type":"string","internalType":"string"}]}],"bytecode":{"object":"0x610160604052348015610010575f5ffd5b5060405161318138038061318183398181016040528101906100329190610808565b806040518060400160405280600781526020017f426c656d61737400000000000000000000000000000000000000000000000000815250806040518060400160405280600181526020017f31000000000000000000000000000000000000000000000000000000000000008152506040518060400160405280600781526020017f426c656d617374000000000000000000000000000000000000000000000000008152506040518060400160405280600381526020017f424c450000000000000000000000000000000000000000000000000000000000815250816003908161011b9190610a70565b50806004908161012b9190610a70565b50505061014260068361029660201b90919060201c565b610120818152505061015e60078261029660201b90919060201c565b6101408181525050818051906020012060e08181525050808051906020012061010081815250504660a0818152505061019b6102e360201b60201c565b608081815250503073ffffffffffffffffffffffffffffffffffffffff1660c08173ffffffffffffffffffffffffffffffffffffffff16815250505050505f73ffffffffffffffffffffffffffffffffffffffff168173ffffffffffffffffffffffffffffffffffffffff1603610249575f6040517f1e4fbdf70000000000000000000000000000000000000000000000000000000081526004016102409190610b4e565b60405180910390fd5b6102588161033d60201b60201c565b506102908161026b61040060201b60201c565b600a6102779190610ccf565b620f42406102859190610d19565b61040860201b60201c565b50610f6c565b5f6020835110156102b7576102b08361048d60201b60201c565b90506102dd565b826102c7836104f260201b60201c565b5f0190816102d59190610a70565b5060ff5f1b90505b92915050565b5f7f8b73c3c69bb8fe3d512ecc4cf759cc79239f7b179b0ffacaa9a75d522b39400f60e051610100514630604051602001610322959493929190610d81565b60405160208183030381529060405280519060200120905090565b5f60095f9054906101000a900473ffffffffffffffffffffffffffffffffffffffff1690508160095f6101000a81548173ffffffffffffffffffffffffffffffffffffffff021916908373ffffffffffffffffffffffffffffffffffffffff1602179055508173ffffffffffffffffffffffffffffffffffffffff168173ffffffffffffffffffffffffffffffffffffffff167f8be0079c531659141344cd1fd0a4f28419497f9722a3daafe3b4186f6b6457e060405160405180910390a35050565b5f6012905090565b5f73ffffffffffffffffffffffffffffffffffffffff168273ffffffffffffffffffffffffffffffffffffffff1603610478575f6040517fec442f0500000000000000000000000000000000000000000000000000000000815260040161046f9190610b4e565b60405180910390fd5b6104895f83836104fb60201b60201c565b5050565b5f5f829050601f815111156104d957826040517f305a27a90000000000000000000000000000000000000000000000000000000081526004016104d09190610e38565b60405180910390fd5b8051816104e590610e85565b5f1c175f1b915050919050565b5f819050919050565b61050c83838361051160201b60201c565b505050565b61051f61053560201b60201c565b61053083838361057c60201b60201c565b505050565b61054361079560201b60201c565b1561057a576040517fd93c066500000000000000000000000000000000000000000000000000000000815260040160405180910390fd5b565b5f73ffffffffffffffffffffffffffffffffffffffff168373ffffffffffffffffffffffffffffffffffffffff16036105cc578060025f8282546105c09190610eeb565b9250508190555061069a565b5f5f5f8573ffffffffffffffffffffffffffffffffffffffff1673ffffffffffffffffffffffffffffffffffffffff1681526020019081526020015f2054905081811015610655578381836040517fe450d38c00000000000000000000000000000000000000000000000000000000815260040161064c93929190610f1e565b60405180910390fd5b8181035f5f8673ffffffffffffffffffffffffffffffffffffffff1673ffffffffffffffffffffffffffffffffffffffff1681526020019081526020015f2081905550505b5f73ffffffffffffffffffffffffffffffffffffffff168273ffffffffffffffffffffffffffffffffffffffff16036106e1578060025f828254039250508190555061072b565b805f5f8473ffffffffffffffffffffffffffffffffffffffff1673ffffffffffffffffffffffffffffffffffffffff1681526020019081526020015f205f82825401925050819055505b8173ffffffffffffffffffffffffffffffffffffffff168373ffffffffffffffffffffffffffffffffffffffff167fddf252ad1be2c89b69c2b068fc378daa952ba7f163c4a11628f55a4df523b3ef836040516107889190610f53565b60405180910390a3505050565b5f60055f9054906101000a900460ff16905090565b5f5ffd5b5f73ffffffffffffffffffffffffffffffffffffffff82169050919050565b5f6107d7826107ae565b9050919050565b6107e7816107cd565b81146107f1575f5ffd5b50565b5f81519050610802816107de565b92915050565b5f6020828403121561081d5761081c6107aa565b5b5f61082a848285016107f4565b91505092915050565b5f81519050919050565b7f4e487b71000000000000000000000000000000000000000000000000000000005f52604160045260245ffd5b7f4e487b71000000000000000000000000000000000000000000000000000000005f52602260045260245ffd5b5f60028204905060018216806108ae57607f821691505b6020821081036108c1576108c061086a565b5b50919050565b5f819050815f5260205f209050919050565b5f6020601f8301049050919050565b5f82821b905092915050565b5f600883026109237fffffffffffffffffffffffffffffffffffffffffffffffffffffffffffffffff826108e8565b61092d86836108e8565b95508019841693508086168417925050509392505050565b5f819050919050565b5f819050919050565b5f61097161096c61096784610945565b61094e565b610945565b9050919050565b5f819050919050565b61098a83610957565b61099e61099682610978565b8484546108f4565b825550505050565b5f5f905090565b6109b56109a6565b6109c0818484610981565b505050565b5b818110156109e3576109d85f826109ad565b6001810190506109c6565b5050565b601f821115610a28576109f9816108c7565b610a02846108d9565b81016020851015610a11578190505b610a25610a1d856108d9565b8301826109c5565b50505b505050565b5f82821c905092915050565b5f610a485f1984600802610a2d565b1980831691505092915050565b5f610a608383610a39565b9150826002028217905092915050565b610a7982610833565b67ffffffffffffffff811115610a9257610a9161083d565b5b610a9c8254610897565b610aa78282856109e7565b5f60209050601f831160018114610ad8575f8415610ac6578287015190505b610ad08582610a55565b865550610b37565b601f198416610ae6866108c7565b5f5b82811015610b0d57848901518255600182019150602085019450602081019050610ae8565b86831015610b2a5784890151610b26601f891682610a39565b8355505b6001600288020188555050505b505050505050565b610b48816107cd565b82525050565b5f602082019050610b615f830184610b3f565b92915050565b7f4e487b71000000000000000000000000000000000000000000000000000000005f52601160045260245ffd5b5f8160011c9050919050565b5f5f8291508390505b6001851115610be957808604811115610bc557610bc4610b67565b5b6001851615610bd45780820291505b8081029050610be285610b94565b9450610ba9565b94509492505050565b5f82610c015760019050610cbc565b81610c0e575f9050610cbc565b8160018114610c245760028114610c2e57610c5d565b6001915050610cbc565b60ff841115610c4057610c3f610b67565b5b8360020a915084821115610c5757610c56610b67565b5b50610cbc565b5060208310610133831016604e8410600b8410161715610c925782820a905083811115610c8d57610c8c610b67565b5b610cbc565b610c9f8484846001610ba0565b92509050818404811115610cb657610cb5610b67565b5b81810290505b9392505050565b5f60ff82169050919050565b5f610cd982610945565b9150610ce483610cc3565b9250610d117fffffffffffffffffffffffffffffffffffffffffffffffffffffffffffffffff8484610bf2565b905092915050565b5f610d2382610945565b9150610d2e83610945565b9250828202610d3c81610945565b91508282048414831517610d5357610d52610b67565b5b5092915050565b5f819050919050565b610d6c81610d5a565b82525050565b610d7b81610945565b82525050565b5f60a082019050610d945f830188610d63565b610da16020830187610d63565b610dae6040830186610d63565b610dbb6060830185610d72565b610dc86080830184610b3f565b9695505050505050565b5f82825260208201905092915050565b8281835e5f83830152505050565b5f601f19601f8301169050919050565b5f610e0a82610833565b610e148185610dd2565b9350610e24818560208601610de2565b610e2d81610df0565b840191505092915050565b5f6020820190508181035f830152610e508184610e00565b905092915050565b5f81519050919050565b5f819050602082019050919050565b5f610e7c8251610d5a565b80915050919050565b5f610e8f82610e58565b82610e9984610e62565b9050610ea481610e71565b92506020821015610ee457610edf7fffffffffffffffffffffffffffffffffffffffffffffffffffffffffffffffff836020036008026108e8565b831692505b5050919050565b5f610ef582610945565b9150610f0083610945565b9250828201905080821115610f1857610f17610b67565b5b92915050565b5f606082019050610f315f830186610b3f565b610f3e6020830185610d72565b610f4b6040830184610d72565b949350505050565b5f602082019050610f665f830184610d72565b92915050565b60805160a05160c05160e0516101005161012051610140516121c4610fbd5f395f610f6b01525f610f3001525f61125b01525f61123a01525f610b5801525f610bae01525f610bd701526121c45ff3fe608060405234801561000f575f5ffd5b5060043610610140575f3560e01c8063715018a6116100b65780638da5cb5b1161007a5780638da5cb5b1461033057806395d89b411461034e578063a9059cbb1461036c578063d505accf1461039c578063dd62ed3e146103b8578063f2fde38b146103e857610140565b8063715018a6146102ac57806379cc6790146102b65780637ecebe00146102d25780638456cb591461030257806384b0196e1461030c57610140565b80633644e515116101085780633644e515146101fe5780633f4ba83a1461021c57806340c10f191461022657806342966c68146102425780635c975abb1461025e57806370a082311461027c57610140565b806306fdde0314610144578063095ea7b31461016257806318160ddd1461019257806323b872dd146101b0578063313ce567146101e0575b5f5ffd5b61014c610404565b6040516101599190611a09565b60405180910390f35b61017c60048036038101906101779190611aba565b610494565b6040516101899190611b12565b60405180910390f35b61019a6104b6565b6040516101a79190611b3a565b60405180910390f35b6101ca60048036038101906101c59190611b53565b6104bf565b6040516101d79190611b12565b60405180910390f35b6101e86104ed565b6040516101f59190611bbe565b60405180910390f35b6102066104f5565b6040516102139190611bef565b60405180910390f35b610224610503565b005b610240600480360381019061023b9190611aba565b610515565b005b61025c60048036038101906102579190611c08565b61052b565b005b61026661053f565b6040516102739190611b12565b60405180910390f35b61029660048036038101906102919190611c33565b610554565b6040516102a39190611b3a565b60405180910390f35b6102b4610599565b005b6102d060048036038101906102cb9190611aba565b6105ac565b005b6102ec60048036038101906102e79190611c33565b6105cc565b6040516102f99190611b3a565b60405180910390f35b61030a6105dd565b005b6103146105ef565b6040516103279796959493929190611d5e565b60405180910390f35b610338610694565b6040516103459190611de0565b60405180910390f35b6103566106bc565b6040516103639190611a09565b60405180910390f35b61038660048036038101906103819190611aba565b61074c565b6040516103939190611b12565b60405180910390f35b6103b660048036038101906103b19190611e4d565b61076e565b005b6103d260048036038101906103cd9190611eea565b6108b3565b6040516103df9190611b3a565b60405180910390f35b61040260048036038101906103fd9190611c33565b610935565b005b60606003805461041390611f55565b80601f016020809104026020016040519081016040528092919081815260200182805461043f90611f55565b801561048a5780601f106104615761010080835404028352916020019161048a565b820191905f5260205f20905b81548152906001019060200180831161046d57829003601f168201915b5050505050905090565b5f5f61049e6109b9565b90506104ab8185856109c0565b600191505092915050565b5f600254905090565b5f5f6104c96109b9565b90506104d68582856109d2565b6104e1858585610a65565b60019150509392505050565b5f6012905090565b5f6104fe610b55565b905090565b61050b610c0b565b610513610c92565b565b61051d610c0b565b6105278282610cf3565b5050565b61053c6105366109b9565b82610d72565b50565b5f60055f9054906101000a900460ff16905090565b5f5f5f8373ffffffffffffffffffffffffffffffffffffffff1673ffffffffffffffffffffffffffffffffffffffff1681526020019081526020015f20549050919050565b6105a1610c0b565b6105aa5f610df1565b565b6105be826105b86109b9565b836109d2565b6105c88282610d72565b5050565b5f6105d682610eb4565b9050919050565b6105e5610c0b565b6105ed610ec5565b565b5f6060805f5f5f6060610600610f27565b610608610f62565b46305f5f1b5f67ffffffffffffffff81111561062757610626611f85565b5b6040519080825280602002602001820160405280156106555781602001602082028036833780820191505090505b507f0f00000000000000000000000000000000000000000000000000000000000000959493929190965096509650965096509650965090919293949596565b5f60095f9054906101000a900473ffffffffffffffffffffffffffffffffffffffff16905090565b6060600480546106cb90611f55565b80601f01602080910402602001604051908101604052809291908181526020018280546106f790611f55565b80156107425780601f1061071957610100808354040283529160200191610742565b820191905f5260205f20905b81548152906001019060200180831161072557829003601f168201915b5050505050905090565b5f5f6107566109b9565b9050610763818585610a65565b600191505092915050565b834211156107b357836040517f627913020000000000000000000000000000000000000000000000000000000081526004016107aa9190611b3a565b60405180910390fd5b5f7f6e71edae12b1b97f4d1f60370fef10105fa2faae0126114a169c64845d6126c98888886107e18c610f9d565b896040516020016107f796959493929190611fb2565b6040516020818303038152906040528051906020012090505f61081982610ff0565b90505f61082882878787611009565b90508973ffffffffffffffffffffffffffffffffffffffff168173ffffffffffffffffffffffffffffffffffffffff161461089c57808a6040517f4b800e46000000000000000000000000000000000000000000000000000000008152600401610893929190612011565b60405180910390fd5b6108a78a8a8a6109c0565b50505050505050505050565b5f60015f8473ffffffffffffffffffffffffffffffffffffffff1673ffffffffffffffffffffffffffffffffffffffff1681526020019081526020015f205f8373ffffffffffffffffffffffffffffffffffffffff1673ffffffffffffffffffffffffffffffffffffffff1681526020019081526020015f2054905092915050565b61093d610c0b565b5f73ffffffffffffffffffffffffffffffffffffffff168173ffffffffffffffffffffffffffffffffffffffff16036109ad575f6040517f1e4fbdf70000000000000000000000000000000000000000000000000000000081526004016109a49190611de0565b60405180910390fd5b6109b681610df1565b50565b5f33905090565b6109cd8383836001611037565b505050565b5f6109dd84846108b3565b90507fffffffffffffffffffffffffffffffffffffffffffffffffffffffffffffffff811015610a5f5781811015610a50578281836040517ffb8f41b2000000000000000000000000000000000000000000000000000000008152600401610a4793929190612038565b60405180910390fd5b610a5e84848484035f611037565b5b50505050565b5f73ffffffffffffffffffffffffffffffffffffffff168373ffffffffffffffffffffffffffffffffffffffff1603610ad5575f6040517f96c6fd1e000000000000000000000000000000000000000000000000000000008152600401610acc9190611de0565b60405180910390fd5b5f73ffffffffffffffffffffffffffffffffffffffff168273ffffffffffffffffffffffffffffffffffffffff1603610b45575f6040517fec442f05000000000000000000000000000000000000000000000000000000008152600401610b3c9190611de0565b60405180910390fd5b610b50838383611206565b505050565b5f7f000000000000000000000000000000000000000000000000000000000000000073ffffffffffffffffffffffffffffffffffffffff163073ffffffffffffffffffffffffffffffffffffffff16148015610bd057507f000000000000000000000000000000000000000000000000000000000000000046145b15610bfd577f00000000000000000000000000000000000000000000000000000000000000009050610c08565b610c05611216565b90505b90565b610c136109b9565b73ffffffffffffffffffffffffffffffffffffffff16610c31610694565b73ffffffffffffffffffffffffffffffffffffffff1614610c9057610c546109b9565b6040517f118cdaa7000000000000000000000000000000000000000000000000000000008152600401610c879190611de0565b60405180910390fd5b565b610c9a6112ab565b5f60055f6101000a81548160ff0219169083151502179055507f5db9ee0a495bf2e6ff9c91a7834c1ba4fdd244a5e8aa4e537bd38aeae4b073aa610cdc6109b9565b604051610ce99190611de0565b60405180910390a1565b5f73ffffffffffffffffffffffffffffffffffffffff168273ffffffffffffffffffffffffffffffffffffffff1603610d63575f6040517fec442f05000000000000000000000000000000000000000000000000000000008152600401610d5a9190611de0565b60405180910390fd5b610d6e5f8383611206565b5050565b5f73ffffffffffffffffffffffffffffffffffffffff168273ffffffffffffffffffffffffffffffffffffffff1603610de2575f6040517f96c6fd1e000000000000000000000000000000000000000000000000000000008152600401610dd99190611de0565b60405180910390fd5b610ded825f83611206565b5050565b5f60095f9054906101000a900473ffffffffffffffffffffffffffffffffffffffff1690508160095f6101000a81548173ffffffffffffffffffffffffffffffffffffffff021916908373ffffffffffffffffffffffffffffffffffffffff1602179055508173ffffffffffffffffffffffffffffffffffffffff168173ffffffffffffffffffffffffffffffffffffffff167f8be0079c531659141344cd1fd0a4f28419497f9722a3daafe3b4186f6b6457e060405160405180910390a35050565b5f610ebe826112eb565b9050919050565b610ecd611331565b600160055f6101000a81548160ff0219169083151502179055507f62e78cea01bee320cd4e420270b5ea74000d11b0c9f74754ebdbfc544b05a258610f106109b9565b604051610f1d9190611de0565b60405180910390a1565b6060610f5d60067f000000000000000000000000000000000000000000000000000000000000000061137290919063ffffffff16565b905090565b6060610f9860077f000000000000000000000000000000000000000000000000000000000000000061137290919063ffffffff16565b905090565b5f60085f8373ffffffffffffffffffffffffffffffffffffffff1673ffffffffffffffffffffffffffffffffffffffff1681526020019081526020015f205f815480929190600101919050559050919050565b5f611002610ffc610b55565b8361141f565b9050919050565b5f5f5f5f6110198888888861145f565b9250925092506110298282611546565b829350505050949350505050565b5f73ffffffffffffffffffffffffffffffffffffffff168473ffffffffffffffffffffffffffffffffffffffff16036110a7575f6040517fe602df0500000000000000000000000000000000000000000000000000000000815260040161109e9190611de0565b60405180910390fd5b5f73ffffffffffffffffffffffffffffffffffffffff168373ffffffffffffffffffffffffffffffffffffffff1603611117575f6040517f94280d6200000000000000000000000000000000000000000000000000000000815260040161110e9190611de0565b60405180910390fd5b8160015f8673ffffffffffffffffffffffffffffffffffffffff1673ffffffffffffffffffffffffffffffffffffffff1681526020019081526020015f205f8573ffffffffffffffffffffffffffffffffffffffff1673ffffffffffffffffffffffffffffffffffffffff1681526020019081526020015f20819055508015611200578273ffffffffffffffffffffffffffffffffffffffff168473ffffffffffffffffffffffffffffffffffffffff167f8c5be1e5ebec7d5bd14f71427d1e84f3dd0314c0f7b2291e5b200ac8c7c3b925846040516111f79190611b3a565b60405180910390a35b50505050565b6112118383836116a8565b505050565b5f7f8b73c3c69bb8fe3d512ecc4cf759cc79239f7b179b0ffacaa9a75d522b39400f7f00000000000000000000000000000000000000000000000000000000000000007f0000000000000000000000000000000000000000000000000000000000000000463060405160200161129095949392919061206d565b60405160208183030381529060405280519060200120905090565b6112b361053f565b6112e9576040517f8dfc202b00000000000000000000000000000000000000000000000000000000815260040160405180910390fd5b565b5f60085f8373ffffffffffffffffffffffffffffffffffffffff1673ffffffffffffffffffffffffffffffffffffffff1681526020019081526020015f20549050919050565b61133961053f565b15611370576040517fd93c066500000000000000000000000000000000000000000000000000000000815260040160405180910390fd5b565b606060ff5f1b831461138e57611387836116c0565b9050611419565b81805461139a90611f55565b80601f01602080910402602001604051908101604052809291908181526020018280546113c690611f55565b80156114115780601f106113e857610100808354040283529160200191611411565b820191905f5260205f20905b8154815290600101906020018083116113f457829003601f168201915b505050505090505b92915050565b5f6040517f190100000000000000000000000000000000000000000000000000000000000081528360028201528260228201526042812091505092915050565b5f5f5f7f7fffffffffffffffffffffffffffffff5d576e7357a4501ddfe92f46681b20a0845f1c111561149b575f60038592509250925061153c565b5f6001888888886040515f81526020016040526040516114be94939291906120be565b6020604051602081039080840390855afa1580156114de573d5f5f3e3d5ffd5b5050506020604051035190505f73ffffffffffffffffffffffffffffffffffffffff168173ffffffffffffffffffffffffffffffffffffffff160361152f575f60015f5f1b9350935093505061153c565b805f5f5f1b935093509350505b9450945094915050565b5f600381111561155957611558612101565b5b82600381111561156c5761156b612101565b5b03156116a4576001600381111561158657611585612101565b5b82600381111561159957611598612101565b5b036115d0576040517ff645eedf00000000000000000000000000000000000000000000000000000000815260040160405180910390fd5b600260038111156115e4576115e3612101565b5b8260038111156115f7576115f6612101565b5b0361163b57805f1c6040517ffce698f70000000000000000000000000000000000000000000000000000000081526004016116329190611b3a565b60405180910390fd5b60038081111561164e5761164d612101565b5b82600381111561166157611660612101565b5b036116a357806040517fd78bce0c00000000000000000000000000000000000000000000000000000000815260040161169a9190611bef565b60405180910390fd5b5b5050565b6116b0611331565b6116bb838383611732565b505050565b60605f6116cc8361194b565b90505f602067ffffffffffffffff8111156116ea576116e9611f85565b5b6040519080825280601f01601f19166020018201604052801561171c5781602001600182028036833780820191505090505b5090508181528360208201528092505050919050565b5f73ffffffffffffffffffffffffffffffffffffffff168373ffffffffffffffffffffffffffffffffffffffff1603611782578060025f828254611776919061215b565b92505081905550611850565b5f5f5f8573ffffffffffffffffffffffffffffffffffffffff1673ffffffffffffffffffffffffffffffffffffffff1681526020019081526020015f205490508181101561180b578381836040517fe450d38c00000000000000000000000000000000000000000000000000000000815260040161180293929190612038565b60405180910390fd5b8181035f5f8673ffffffffffffffffffffffffffffffffffffffff1673ffffffffffffffffffffffffffffffffffffffff1681526020019081526020015f2081905550505b5f73ffffffffffffffffffffffffffffffffffffffff168273ffffffffffffffffffffffffffffffffffffffff1603611897578060025f82825403925050819055506118e1565b805f5f8473ffffffffffffffffffffffffffffffffffffffff1673ffffffffffffffffffffffffffffffffffffffff1681526020019081526020015f205f82825401925050819055505b8173ffffffffffffffffffffffffffffffffffffffff168373ffffffffffffffffffffffffffffffffffffffff167fddf252ad1be2c89b69c2b068fc378daa952ba7f163c4a11628f55a4df523b3ef8360405161193e9190611b3a565b60405180910390a3505050565b5f5f60ff835f1c169050601f811115611990576040517fb3512b0c00000000000000000000000000000000000000000000000000000000815260040160405180910390fd5b80915050919050565b5f81519050919050565b5f82825260208201905092915050565b8281835e5f83830152505050565b5f601f19601f8301169050919050565b5f6119db82611999565b6119e581856119a3565b93506119f58185602086016119b3565b6119fe816119c1565b840191505092915050565b5f6020820190508181035f830152611a2181846119d1565b905092915050565b5f5ffd5b5f73ffffffffffffffffffffffffffffffffffffffff82169050919050565b5f611a5682611a2d565b9050919050565b611a6681611a4c565b8114611a70575f5ffd5b50565b5f81359050611a8181611a5d565b92915050565b5f819050919050565b611a9981611a87565b8114611aa3575f5ffd5b50565b5f81359050611ab481611a90565b92915050565b5f5f60408385031215611ad057611acf611a29565b5b5f611add85828601611a73565b9250506020611aee85828601611aa6565b9150509250929050565b5f8115159050919050565b611b0c81611af8565b82525050565b5f602082019050611b255f830184611b03565b92915050565b611b3481611a87565b82525050565b5f602082019050611b4d5f830184611b2b565b92915050565b5f5f5f60608486031215611b6a57611b69611a29565b5b5f611b7786828701611a73565b9350506020611b8886828701611a73565b9250506040611b9986828701611aa6565b9150509250925092565b5f60ff82169050919050565b611bb881611ba3565b82525050565b5f602082019050611bd15f830184611baf565b92915050565b5f819050919050565b611be981611bd7565b82525050565b5f602082019050611c025f830184611be0565b92915050565b5f60208284031215611c1d57611c1c611a29565b5b5f611c2a84828501611aa6565b91505092915050565b5f60208284031215611c4857611c47611a29565b5b5f611c5584828501611a73565b91505092915050565b5f7fff0000000000000000000000000000000000000000000000000000000000000082169050919050565b611c9281611c5e565b82525050565b611ca181611a4c565b82525050565b5f81519050919050565b5f82825260208201905092915050565b5f819050602082019050919050565b611cd981611a87565b82525050565b5f611cea8383611cd0565b60208301905092915050565b5f602082019050919050565b5f611d0c82611ca7565b611d168185611cb1565b9350611d2183611cc1565b805f5b83811015611d51578151611d388882611cdf565b9750611d4383611cf6565b925050600181019050611d24565b5085935050505092915050565b5f60e082019050611d715f83018a611c89565b8181036020830152611d8381896119d1565b90508181036040830152611d9781886119d1565b9050611da66060830187611b2b565b611db36080830186611c98565b611dc060a0830185611be0565b81810360c0830152611dd28184611d02565b905098975050505050505050565b5f602082019050611df35f830184611c98565b92915050565b611e0281611ba3565b8114611e0c575f5ffd5b50565b5f81359050611e1d81611df9565b92915050565b611e2c81611bd7565b8114611e36575f5ffd5b50565b5f81359050611e4781611e23565b92915050565b5f5f5f5f5f5f5f60e0888a031215611e6857611e67611a29565b5b5f611e758a828b01611a73565b9750506020611e868a828b01611a73565b9650506040611e978a828b01611aa6565b9550506060611ea88a828b01611aa6565b9450506080611eb98a828b01611e0f565b93505060a0611eca8a828b01611e39565b92505060c0611edb8a828b01611e39565b91505092959891949750929550565b5f5f60408385031215611f0057611eff611a29565b5b5f611f0d85828601611a73565b9250506020611f1e85828601611a73565b9150509250929050565b7f4e487b71000000000000000000000000000000000000000000000000000000005f52602260045260245ffd5b5f6002820490506001821680611f6c57607f821691505b602082108103611f7f57611f7e611f28565b5b50919050565b7f4e487b71000000000000000000000000000000000000000000000000000000005f52604160045260245ffd5b5f60c082019050611fc55f830189611be0565b611fd26020830188611c98565b611fdf6040830187611c98565b611fec6060830186611b2b565b611ff96080830185611b2b565b61200660a0830184611b2b565b979650505050505050565b5f6040820190506120245f830185611c98565b6120316020830184611c98565b9392505050565b5f60608201905061204b5f830186611c98565b6120586020830185611b2b565b6120656040830184611b2b565b949350505050565b5f60a0820190506120805f830188611be0565b61208d6020830187611be0565b61209a6040830186611be0565b6120a76060830185611b2b565b6120b46080830184611c98565b9695505050505050565b5f6080820190506120d15f830187611be0565b6120de6020830186611baf565b6120eb6040830185611be0565b6120f86060830184611be0565b95945050505050565b7f4e487b71000000000000000000000000000000000000000000000000000000005f52602160045260245ffd5b7f4e487b71000000000000000000000000000000000000000000000000000000005f52601160045260245ffd5b5f61216582611a87565b915061217083611a87565b92508282019050808211156121885761218761212e565b5b9291505056fea2646970667358221220fc5d4940683ca9b290d2137cc89a84a4f36b59540fe5849b33d5c1694d452dee64736f6c634300081e0033","linkReferences":{}},"methodIdentifiers":{"DOMAIN_SEPARATOR()":"3644e515","allowance(address,address)":"dd62ed3e","approve(address,uint256)":"095ea7b3","balanceOf(address)":"70a08231","burn(uint256)":"42966c68","burnFrom(address,uint256)":"79cc6790","decimals()":"313ce567","eip712Domain()":"84b0196e","mint(address,uint256)":"40c10f19","name()":"06fdde03","nonces(address)":"7ecebe00","owner()":"8da5cb5b","pause()":"8456cb59","paused()":"5c975abb","permit(address,address,uint256,uint256,uint8,bytes32,bytes32)":"d505accf","renounceOwnership()":"715018a6","symbol()":"95d89b41","totalSupply()":"18160ddd","transfer(address,uint256)":"a9059cbb","transferFrom(address,address,uint256)":"23b872dd","transferOwnership(address)":"f2fde38b","unpause()":"3f4ba83a"},"id":42}